{
	"contract-23c7cdd9f0.sol": {
		"ERC721": {
			"abi": [
				{
					"anonymous": false,
					"inputs": [
						{
							"indexed": true,
							"internalType": "address",
							"name": "owner",
							"type": "address"
						},
						{
							"indexed": true,
							"internalType": "address",
							"name": "spender",
							"type": "address"
						},
						{
							"indexed": true,
							"internalType": "uint256",
							"name": "id",
							"type": "uint256"
						}
					],
					"name": "Approval",
					"type": "event"
				},
				{
					"anonymous": false,
					"inputs": [
						{
							"indexed": true,
							"internalType": "address",
							"name": "owner",
							"type": "address"
						},
						{
							"indexed": true,
							"internalType": "address",
							"name": "operator",
							"type": "address"
						},
						{
							"indexed": false,
							"internalType": "bool",
							"name": "approved",
							"type": "bool"
						}
					],
					"name": "ApprovalForAll",
					"type": "event"
				},
				{
					"anonymous": false,
					"inputs": [
						{
							"indexed": true,
							"internalType": "address",
							"name": "from",
							"type": "address"
						},
						{
							"indexed": true,
							"internalType": "address",
							"name": "to",
							"type": "address"
						},
						{
							"indexed": true,
							"internalType": "uint256",
							"name": "id",
							"type": "uint256"
						}
					],
					"name": "Transfer",
					"type": "event"
				},
				{
					"inputs": [
						{
							"internalType": "address",
							"name": "spender",
							"type": "address"
						},
						{
							"internalType": "uint256",
							"name": "id",
							"type": "uint256"
						}
					],
					"name": "approve",
					"outputs": [],
					"stateMutability": "nonpayable",
					"type": "function"
				},
				{
					"inputs": [
						{
							"internalType": "address",
							"name": "owner",
							"type": "address"
						}
					],
					"name": "balanceOf",
					"outputs": [
						{
							"internalType": "uint256",
							"name": "",
							"type": "uint256"
						}
					],
					"stateMutability": "view",
					"type": "function"
				},
				{
					"inputs": [
						{
							"internalType": "uint256",
							"name": "id",
							"type": "uint256"
						}
					],
					"name": "getApproved",
					"outputs": [
						{
							"internalType": "address",
							"name": "",
							"type": "address"
						}
					],
					"stateMutability": "view",
					"type": "function"
				},
				{
					"inputs": [
						{
							"internalType": "address",
							"name": "",
							"type": "address"
						},
						{
							"internalType": "address",
							"name": "",
							"type": "address"
						}
					],
					"name": "isApprovedForAll",
					"outputs": [
						{
							"internalType": "bool",
							"name": "",
							"type": "bool"
						}
					],
					"stateMutability": "view",
					"type": "function"
				},
				{
					"inputs": [
						{
							"internalType": "uint256",
							"name": "id",
							"type": "uint256"
						}
					],
					"name": "ownerOf",
					"outputs": [
						{
							"internalType": "address",
							"name": "owner",
							"type": "address"
						}
					],
					"stateMutability": "view",
					"type": "function"
				},
				{
					"inputs": [
						{
							"internalType": "address",
							"name": "from",
							"type": "address"
						},
						{
							"internalType": "address",
							"name": "to",
							"type": "address"
						},
						{
							"internalType": "uint256",
							"name": "id",
							"type": "uint256"
						}
					],
					"name": "safeTransferFrom",
					"outputs": [],
					"stateMutability": "nonpayable",
					"type": "function"
				},
				{
					"inputs": [
						{
							"internalType": "address",
							"name": "from",
							"type": "address"
						},
						{
							"internalType": "address",
							"name": "to",
							"type": "address"
						},
						{
							"internalType": "uint256",
							"name": "id",
							"type": "uint256"
						},
						{
							"internalType": "bytes",
							"name": "data",
							"type": "bytes"
						}
					],
					"name": "safeTransferFrom",
					"outputs": [],
					"stateMutability": "nonpayable",
					"type": "function"
				},
				{
					"inputs": [
						{
							"internalType": "address",
							"name": "operator",
							"type": "address"
						},
						{
							"internalType": "bool",
							"name": "approved",
							"type": "bool"
						}
					],
					"name": "setApprovalForAll",
					"outputs": [],
					"stateMutability": "nonpayable",
					"type": "function"
				},
				{
					"inputs": [
						{
							"internalType": "bytes4",
							"name": "interfaceId",
							"type": "bytes4"
						}
					],
					"name": "supportsInterface",
					"outputs": [
						{
							"internalType": "bool",
							"name": "",
							"type": "bool"
						}
					],
					"stateMutability": "pure",
					"type": "function"
				},
				{
					"inputs": [
						{
							"internalType": "address",
							"name": "from",
							"type": "address"
						},
						{
							"internalType": "address",
							"name": "to",
							"type": "address"
						},
						{
							"internalType": "uint256",
							"name": "id",
							"type": "uint256"
						}
					],
					"name": "transferFrom",
					"outputs": [],
					"stateMutability": "nonpayable",
					"type": "function"
				},
				{
					"inputs": [
						{
							"internalType": "uint256",
							"name": "",
							"type": "uint256"
						}
					],
					"name": "whiteList",
					"outputs": [
						{
							"internalType": "address",
							"name": "",
							"type": "address"
						}
					],
					"stateMutability": "view",
					"type": "function"
				}
			],
			"devdoc": {
				"kind": "dev",
				"methods": {},
				"version": 1
			},
			"evm": {
				"assembly": "    /* \"contract-23c7cdd9f0.sol\":1170:5187  contract ERC721 is IERC721 {... */\n  mstore(0x40, 0x80)\n  callvalue\n  dup1\n  iszero\n  tag_1\n  jumpi\n  0x00\n  dup1\n  revert\ntag_1:\n  pop\n  dataSize(sub_0)\n  dup1\n  dataOffset(sub_0)\n  0x00\n  codecopy\n  0x00\n  return\nstop\n\nsub_0: assembly {\n        /* \"contract-23c7cdd9f0.sol\":1170:5187  contract ERC721 is IERC721 {... */\n      mstore(0x40, 0x80)\n      callvalue\n      dup1\n      iszero\n      tag_1\n      jumpi\n      0x00\n      dup1\n      revert\n    tag_1:\n      pop\n      jumpi(tag_2, lt(calldatasize, 0x04))\n      shr(0xe0, calldataload(0x00))\n      dup1\n      0x5c475d42\n      gt\n      tag_14\n      jumpi\n      dup1\n      0x5c475d42\n      eq\n      tag_8\n      jumpi\n      dup1\n      0x6352211e\n      eq\n      tag_9\n      jumpi\n      dup1\n      0x70a08231\n      eq\n      tag_10\n      jumpi\n      dup1\n      0xa22cb465\n      eq\n      tag_11\n      jumpi\n      dup1\n      0xb88d4fde\n      eq\n      tag_12\n      jumpi\n      dup1\n      0xe985e9c5\n      eq\n      tag_13\n      jumpi\n      jump(tag_2)\n    tag_14:\n      dup1\n      0x01ffc9a7\n      eq\n      tag_3\n      jumpi\n      dup1\n      0x081812fc\n      eq\n      tag_4\n      jumpi\n      dup1\n      0x095ea7b3\n      eq\n      tag_5\n      jumpi\n      dup1\n      0x23b872dd\n      eq\n      tag_6\n      jumpi\n      dup1\n      0x42842e0e\n      eq\n      tag_7\n      jumpi\n    tag_2:\n      0x00\n      dup1\n      revert\n        /* \"contract-23c7cdd9f0.sol\":1933:2141  function supportsInterface(bytes4 interfaceId) external pure returns (bool) {... */\n    tag_3:\n      tag_15\n      0x04\n      dup1\n      calldatasize\n      sub\n      dup2\n      add\n      swap1\n      tag_16\n      swap2\n      swap1\n      tag_17\n      jump\t// in\n    tag_16:\n      tag_18\n      jump\t// in\n    tag_15:\n      mload(0x40)\n      tag_19\n      swap2\n      swap1\n      tag_20\n      jump\t// in\n    tag_19:\n      mload(0x40)\n      dup1\n      swap2\n      sub\n      swap1\n      return\n        /* \"contract-23c7cdd9f0.sol\":3000:3168  function getApproved(uint id) external view returns (address) {... */\n    tag_4:\n      tag_21\n      0x04\n      dup1\n      calldatasize\n      sub\n      dup2\n      add\n      swap1\n      tag_22\n      swap2\n      swap1\n      tag_23\n      jump\t// in\n    tag_22:\n      tag_24\n      jump\t// in\n    tag_21:\n      mload(0x40)\n      tag_25\n      swap2\n      swap1\n      tag_26\n      jump\t// in\n    tag_25:\n      mload(0x40)\n      dup1\n      swap2\n      sub\n      swap1\n      return\n        /* \"contract-23c7cdd9f0.sol\":2689:2994  function approve(address spender, uint id) external {... */\n    tag_5:\n      tag_27\n      0x04\n      dup1\n      calldatasize\n      sub\n      dup2\n      add\n      swap1\n      tag_28\n      swap2\n      swap1\n      tag_29\n      jump\t// in\n    tag_28:\n      tag_30\n      jump\t// in\n    tag_27:\n      stop\n        /* \"contract-23c7cdd9f0.sol\":3439:3859  function transferFrom(address from, address to, uint id) public {... */\n    tag_6:\n      tag_31\n      0x04\n      dup1\n      calldatasize\n      sub\n      dup2\n      add\n      swap1\n      tag_32\n      swap2\n      swap1\n      tag_33\n      jump\t// in\n    tag_32:\n      tag_34\n      jump\t// in\n    tag_31:\n      stop\n        /* \"contract-23c7cdd9f0.sol\":3865:4214  function safeTransferFrom(address from, address to, uint id) external {... */\n    tag_7:\n      tag_35\n      0x04\n      dup1\n      calldatasize\n      sub\n      dup2\n      add\n      swap1\n      tag_36\n      swap2\n      swap1\n      tag_33\n      jump\t// in\n    tag_36:\n      tag_37\n      jump\t// in\n    tag_35:\n      stop\n        /* \"contract-23c7cdd9f0.sol\":1203:1229  address[] public whiteList */\n    tag_8:\n      tag_38\n      0x04\n      dup1\n      calldatasize\n      sub\n      dup2\n      add\n      swap1\n      tag_39\n      swap2\n      swap1\n      tag_23\n      jump\t// in\n    tag_39:\n      tag_40\n      jump\t// in\n    tag_38:\n      mload(0x40)\n      tag_41\n      swap2\n      swap1\n      tag_26\n      jump\t// in\n    tag_41:\n      mload(0x40)\n      dup1\n      swap2\n      sub\n      swap1\n      return\n        /* \"contract-23c7cdd9f0.sol\":2147:2309  function ownerOf(uint id) external view returns (address owner) {... */\n    tag_9:\n      tag_42\n      0x04\n      dup1\n      calldatasize\n      sub\n      dup2\n      add\n      swap1\n      tag_43\n      swap2\n      swap1\n      tag_23\n      jump\t// in\n    tag_43:\n      tag_44\n      jump\t// in\n    tag_42:\n      mload(0x40)\n      tag_45\n      swap2\n      swap1\n      tag_26\n      jump\t// in\n    tag_45:\n      mload(0x40)\n      dup1\n      swap2\n      sub\n      swap1\n      return\n        /* \"contract-23c7cdd9f0.sol\":2315:2481  function balanceOf(address owner) external view returns (uint) {... */\n    tag_10:\n      tag_46\n      0x04\n      dup1\n      calldatasize\n      sub\n      dup2\n      add\n      swap1\n      tag_47\n      swap2\n      swap1\n      tag_48\n      jump\t// in\n    tag_47:\n      tag_49\n      jump\t// in\n    tag_46:\n      mload(0x40)\n      tag_50\n      swap2\n      swap1\n      tag_51\n      jump\t// in\n    tag_50:\n      mload(0x40)\n      dup1\n      swap2\n      sub\n      swap1\n      return\n        /* \"contract-23c7cdd9f0.sol\":2487:2683  function setApprovalForAll(address operator, bool approved) external {... */\n    tag_11:\n      tag_52\n      0x04\n      dup1\n      calldatasize\n      sub\n      dup2\n      add\n      swap1\n      tag_53\n      swap2\n      swap1\n      tag_54\n      jump\t// in\n    tag_53:\n      tag_55\n      jump\t// in\n    tag_52:\n      stop\n        /* \"contract-23c7cdd9f0.sol\":4220:4630  function safeTransferFrom(... */\n    tag_12:\n      tag_56\n      0x04\n      dup1\n      calldatasize\n      sub\n      dup2\n      add\n      swap1\n      tag_57\n      swap2\n      swap1\n      tag_58\n      jump\t// in\n    tag_57:\n      tag_59\n      jump\t// in\n    tag_56:\n      stop\n        /* \"contract-23c7cdd9f0.sol\":1858:1926  mapping(address => mapping(address => bool)) public isApprovedForAll */\n    tag_13:\n      tag_60\n      0x04\n      dup1\n      calldatasize\n      sub\n      dup2\n      add\n      swap1\n      tag_61\n      swap2\n      swap1\n      tag_62\n      jump\t// in\n    tag_61:\n      tag_63\n      jump\t// in\n    tag_60:\n      mload(0x40)\n      tag_64\n      swap2\n      swap1\n      tag_20\n      jump\t// in\n    tag_64:\n      mload(0x40)\n      dup1\n      swap2\n      sub\n      swap1\n      return\n        /* \"contract-23c7cdd9f0.sol\":1933:2141  function supportsInterface(bytes4 interfaceId) external pure returns (bool) {... */\n    tag_18:\n        /* \"contract-23c7cdd9f0.sol\":2003:2007  bool */\n      0x00\n        /* \"contract-23c7cdd9f0.sol\":2053:2078  type(IERC721).interfaceId */\n      0x80ac58cd00000000000000000000000000000000000000000000000000000000\n        /* \"contract-23c7cdd9f0.sol\":2038:2078  interfaceId == type(IERC721).interfaceId */\n      not(0xffffffffffffffffffffffffffffffffffffffffffffffffffffffff)\n      and\n        /* \"contract-23c7cdd9f0.sol\":2038:2049  interfaceId */\n      dup3\n        /* \"contract-23c7cdd9f0.sol\":2038:2078  interfaceId == type(IERC721).interfaceId */\n      not(0xffffffffffffffffffffffffffffffffffffffffffffffffffffffff)\n      and\n      eq\n        /* \"contract-23c7cdd9f0.sol\":2038:2134  interfaceId == type(IERC721).interfaceId ||... */\n      dup1\n      tag_66\n      jumpi\n      pop\n        /* \"contract-23c7cdd9f0.sol\":2109:2134  type(IERC165).interfaceId */\n      0x01ffc9a700000000000000000000000000000000000000000000000000000000\n        /* \"contract-23c7cdd9f0.sol\":2094:2134  interfaceId == type(IERC165).interfaceId */\n      not(0xffffffffffffffffffffffffffffffffffffffffffffffffffffffff)\n      and\n        /* \"contract-23c7cdd9f0.sol\":2094:2105  interfaceId */\n      dup3\n        /* \"contract-23c7cdd9f0.sol\":2094:2134  interfaceId == type(IERC165).interfaceId */\n      not(0xffffffffffffffffffffffffffffffffffffffffffffffffffffffff)\n      and\n      eq\n        /* \"contract-23c7cdd9f0.sol\":2038:2134  interfaceId == type(IERC721).interfaceId ||... */\n    tag_66:\n        /* \"contract-23c7cdd9f0.sol\":2019:2134  return... */\n      swap1\n      pop\n        /* \"contract-23c7cdd9f0.sol\":1933:2141  function supportsInterface(bytes4 interfaceId) external pure returns (bool) {... */\n      swap2\n      swap1\n      pop\n      jump\t// out\n        /* \"contract-23c7cdd9f0.sol\":3000:3168  function getApproved(uint id) external view returns (address) {... */\n    tag_24:\n        /* \"contract-23c7cdd9f0.sol\":3053:3060  address */\n      0x00\n        /* \"contract-23c7cdd9f0.sol\":3104:3105  0 */\n      dup1\n        /* \"contract-23c7cdd9f0.sol\":3080:3106  _ownerOf[id] != address(0) */\n      0xffffffffffffffffffffffffffffffffffffffff\n      and\n        /* \"contract-23c7cdd9f0.sol\":3080:3088  _ownerOf */\n      0x01\n        /* \"contract-23c7cdd9f0.sol\":3080:3092  _ownerOf[id] */\n      0x00\n        /* \"contract-23c7cdd9f0.sol\":3089:3091  id */\n      dup5\n        /* \"contract-23c7cdd9f0.sol\":3080:3092  _ownerOf[id] */\n      dup2\n      mstore\n      0x20\n      add\n      swap1\n      dup2\n      mstore\n      0x20\n      add\n      0x00\n      keccak256\n      0x00\n      swap1\n      sload\n      swap1\n      0x0100\n      exp\n      swap1\n      div\n      0xffffffffffffffffffffffffffffffffffffffff\n      and\n        /* \"contract-23c7cdd9f0.sol\":3080:3106  _ownerOf[id] != address(0) */\n      0xffffffffffffffffffffffffffffffffffffffff\n      and\n      sub\n        /* \"contract-23c7cdd9f0.sol\":3072:3130  require(_ownerOf[id] != address(0), \"token doesn't exist\") */\n      tag_68\n      jumpi\n      mload(0x40)\n      0x08c379a000000000000000000000000000000000000000000000000000000000\n      dup2\n      mstore\n      0x04\n      add\n      tag_69\n      swap1\n      tag_70\n      jump\t// in\n    tag_69:\n      mload(0x40)\n      dup1\n      swap2\n      sub\n      swap1\n      revert\n    tag_68:\n        /* \"contract-23c7cdd9f0.sol\":3147:3157  _approvals */\n      0x03\n        /* \"contract-23c7cdd9f0.sol\":3147:3161  _approvals[id] */\n      0x00\n        /* \"contract-23c7cdd9f0.sol\":3158:3160  id */\n      dup4\n        /* \"contract-23c7cdd9f0.sol\":3147:3161  _approvals[id] */\n      dup2\n      mstore\n      0x20\n      add\n      swap1\n      dup2\n      mstore\n      0x20\n      add\n      0x00\n      keccak256\n      0x00\n      swap1\n      sload\n      swap1\n      0x0100\n      exp\n      swap1\n      div\n      0xffffffffffffffffffffffffffffffffffffffff\n      and\n        /* \"contract-23c7cdd9f0.sol\":3140:3161  return _approvals[id] */\n      swap1\n      pop\n        /* \"contract-23c7cdd9f0.sol\":3000:3168  function getApproved(uint id) external view returns (address) {... */\n      swap2\n      swap1\n      pop\n      jump\t// out\n        /* \"contract-23c7cdd9f0.sol\":2689:2994  function approve(address spender, uint id) external {... */\n    tag_30:\n        /* \"contract-23c7cdd9f0.sol\":2751:2764  address owner */\n      0x00\n        /* \"contract-23c7cdd9f0.sol\":2767:2775  _ownerOf */\n      0x01\n        /* \"contract-23c7cdd9f0.sol\":2767:2779  _ownerOf[id] */\n      0x00\n        /* \"contract-23c7cdd9f0.sol\":2776:2778  id */\n      dup4\n        /* \"contract-23c7cdd9f0.sol\":2767:2779  _ownerOf[id] */\n      dup2\n      mstore\n      0x20\n      add\n      swap1\n      dup2\n      mstore\n      0x20\n      add\n      0x00\n      keccak256\n      0x00\n      swap1\n      sload\n      swap1\n      0x0100\n      exp\n      swap1\n      div\n      0xffffffffffffffffffffffffffffffffffffffff\n      and\n        /* \"contract-23c7cdd9f0.sol\":2751:2779  address owner = _ownerOf[id] */\n      swap1\n      pop\n        /* \"contract-23c7cdd9f0.sol\":2824:2829  owner */\n      dup1\n        /* \"contract-23c7cdd9f0.sol\":2810:2829  msg.sender == owner */\n      0xffffffffffffffffffffffffffffffffffffffff\n      and\n        /* \"contract-23c7cdd9f0.sol\":2810:2820  msg.sender */\n      caller\n        /* \"contract-23c7cdd9f0.sol\":2810:2829  msg.sender == owner */\n      0xffffffffffffffffffffffffffffffffffffffff\n      and\n      eq\n        /* \"contract-23c7cdd9f0.sol\":2810:2868  msg.sender == owner || isApprovedForAll[owner][msg.sender] */\n      dup1\n      tag_72\n      jumpi\n      pop\n        /* \"contract-23c7cdd9f0.sol\":2833:2849  isApprovedForAll */\n      0x04\n        /* \"contract-23c7cdd9f0.sol\":2833:2856  isApprovedForAll[owner] */\n      0x00\n        /* \"contract-23c7cdd9f0.sol\":2850:2855  owner */\n      dup3\n        /* \"contract-23c7cdd9f0.sol\":2833:2856  isApprovedForAll[owner] */\n      0xffffffffffffffffffffffffffffffffffffffff\n      and\n      0xffffffffffffffffffffffffffffffffffffffff\n      and\n      dup2\n      mstore\n      0x20\n      add\n      swap1\n      dup2\n      mstore\n      0x20\n      add\n      0x00\n      keccak256\n        /* \"contract-23c7cdd9f0.sol\":2833:2868  isApprovedForAll[owner][msg.sender] */\n      0x00\n        /* \"contract-23c7cdd9f0.sol\":2857:2867  msg.sender */\n      caller\n        /* \"contract-23c7cdd9f0.sol\":2833:2868  isApprovedForAll[owner][msg.sender] */\n      0xffffffffffffffffffffffffffffffffffffffff\n      and\n      0xffffffffffffffffffffffffffffffffffffffff\n      and\n      dup2\n      mstore\n      0x20\n      add\n      swap1\n      dup2\n      mstore\n      0x20\n      add\n      0x00\n      keccak256\n      0x00\n      swap1\n      sload\n      swap1\n      0x0100\n      exp\n      swap1\n      div\n      0xff\n      and\n        /* \"contract-23c7cdd9f0.sol\":2810:2868  msg.sender == owner || isApprovedForAll[owner][msg.sender] */\n    tag_72:\n        /* \"contract-23c7cdd9f0.sol\":2789:2908  require(... */\n      tag_73\n      jumpi\n      mload(0x40)\n      0x08c379a000000000000000000000000000000000000000000000000000000000\n      dup2\n      mstore\n      0x04\n      add\n      tag_74\n      swap1\n      tag_75\n      jump\t// in\n    tag_74:\n      mload(0x40)\n      dup1\n      swap2\n      sub\n      swap1\n      revert\n    tag_73:\n        /* \"contract-23c7cdd9f0.sol\":2936:2943  spender */\n      dup3\n        /* \"contract-23c7cdd9f0.sol\":2919:2929  _approvals */\n      0x03\n        /* \"contract-23c7cdd9f0.sol\":2919:2933  _approvals[id] */\n      0x00\n        /* \"contract-23c7cdd9f0.sol\":2930:2932  id */\n      dup5\n        /* \"contract-23c7cdd9f0.sol\":2919:2933  _approvals[id] */\n      dup2\n      mstore\n      0x20\n      add\n      swap1\n      dup2\n      mstore\n      0x20\n      add\n      0x00\n      keccak256\n      0x00\n        /* \"contract-23c7cdd9f0.sol\":2919:2943  _approvals[id] = spender */\n      0x0100\n      exp\n      dup2\n      sload\n      dup2\n      0xffffffffffffffffffffffffffffffffffffffff\n      mul\n      not\n      and\n      swap1\n      dup4\n      0xffffffffffffffffffffffffffffffffffffffff\n      and\n      mul\n      or\n      swap1\n      sstore\n      pop\n        /* \"contract-23c7cdd9f0.sol\":2984:2986  id */\n      dup2\n        /* \"contract-23c7cdd9f0.sol\":2975:2982  spender */\n      dup4\n        /* \"contract-23c7cdd9f0.sol\":2959:2987  Approval(owner, spender, id) */\n      0xffffffffffffffffffffffffffffffffffffffff\n      and\n        /* \"contract-23c7cdd9f0.sol\":2968:2973  owner */\n      dup3\n        /* \"contract-23c7cdd9f0.sol\":2959:2987  Approval(owner, spender, id) */\n      0xffffffffffffffffffffffffffffffffffffffff\n      and\n      0x8c5be1e5ebec7d5bd14f71427d1e84f3dd0314c0f7b2291e5b200ac8c7c3b925\n      mload(0x40)\n      mload(0x40)\n      dup1\n      swap2\n      sub\n      swap1\n      log4\n        /* \"contract-23c7cdd9f0.sol\":2741:2994  {... */\n      pop\n        /* \"contract-23c7cdd9f0.sol\":2689:2994  function approve(address spender, uint id) external {... */\n      pop\n      pop\n      jump\t// out\n        /* \"contract-23c7cdd9f0.sol\":3439:3859  function transferFrom(address from, address to, uint id) public {... */\n    tag_34:\n        /* \"contract-23c7cdd9f0.sol\":3529:3537  _ownerOf */\n      0x01\n        /* \"contract-23c7cdd9f0.sol\":3529:3541  _ownerOf[id] */\n      0x00\n        /* \"contract-23c7cdd9f0.sol\":3538:3540  id */\n      dup3\n        /* \"contract-23c7cdd9f0.sol\":3529:3541  _ownerOf[id] */\n      dup2\n      mstore\n      0x20\n      add\n      swap1\n      dup2\n      mstore\n      0x20\n      add\n      0x00\n      keccak256\n      0x00\n      swap1\n      sload\n      swap1\n      0x0100\n      exp\n      swap1\n      div\n      0xffffffffffffffffffffffffffffffffffffffff\n      and\n        /* \"contract-23c7cdd9f0.sol\":3521:3541  from == _ownerOf[id] */\n      0xffffffffffffffffffffffffffffffffffffffff\n      and\n        /* \"contract-23c7cdd9f0.sol\":3521:3525  from */\n      dup4\n        /* \"contract-23c7cdd9f0.sol\":3521:3541  from == _ownerOf[id] */\n      0xffffffffffffffffffffffffffffffffffffffff\n      and\n      eq\n        /* \"contract-23c7cdd9f0.sol\":3513:3559  require(from == _ownerOf[id], \"from != owner\") */\n      tag_77\n      jumpi\n      mload(0x40)\n      0x08c379a000000000000000000000000000000000000000000000000000000000\n      dup2\n      mstore\n      0x04\n      add\n      tag_78\n      swap1\n      tag_79\n      jump\t// in\n    tag_78:\n      mload(0x40)\n      dup1\n      swap2\n      sub\n      swap1\n      revert\n    tag_77:\n        /* \"contract-23c7cdd9f0.sol\":3591:3592  0 */\n      0x00\n        /* \"contract-23c7cdd9f0.sol\":3577:3593  to != address(0) */\n      0xffffffffffffffffffffffffffffffffffffffff\n      and\n        /* \"contract-23c7cdd9f0.sol\":3577:3579  to */\n      dup3\n        /* \"contract-23c7cdd9f0.sol\":3577:3593  to != address(0) */\n      0xffffffffffffffffffffffffffffffffffffffff\n      and\n      sub\n        /* \"contract-23c7cdd9f0.sol\":3569:3622  require(to != address(0), \"transfer to zero address\") */\n      tag_80\n      jumpi\n      mload(0x40)\n      0x08c379a000000000000000000000000000000000000000000000000000000000\n      dup2\n      mstore\n      0x04\n      add\n      tag_81\n      swap1\n      tag_82\n      jump\t// in\n    tag_81:\n      mload(0x40)\n      dup1\n      swap2\n      sub\n      swap1\n      revert\n    tag_80:\n        /* \"contract-23c7cdd9f0.sol\":3641:3681  _isApprovedOrOwner(from, msg.sender, id) */\n      tag_83\n        /* \"contract-23c7cdd9f0.sol\":3660:3664  from */\n      dup4\n        /* \"contract-23c7cdd9f0.sol\":3666:3676  msg.sender */\n      caller\n        /* \"contract-23c7cdd9f0.sol\":3678:3680  id */\n      dup4\n        /* \"contract-23c7cdd9f0.sol\":3641:3659  _isApprovedOrOwner */\n      tag_84\n        /* \"contract-23c7cdd9f0.sol\":3641:3681  _isApprovedOrOwner(from, msg.sender, id) */\n      jump\t// in\n    tag_83:\n        /* \"contract-23c7cdd9f0.sol\":3633:3700  require(_isApprovedOrOwner(from, msg.sender, id), \"not authorized\") */\n      tag_85\n      jumpi\n      mload(0x40)\n      0x08c379a000000000000000000000000000000000000000000000000000000000\n      dup2\n      mstore\n      0x04\n      add\n      tag_86\n      swap1\n      tag_75\n      jump\t// in\n    tag_86:\n      mload(0x40)\n      dup1\n      swap2\n      sub\n      swap1\n      revert\n    tag_85:\n        /* \"contract-23c7cdd9f0.sol\":3711:3721  _balanceOf */\n      0x02\n        /* \"contract-23c7cdd9f0.sol\":3711:3727  _balanceOf[from] */\n      0x00\n        /* \"contract-23c7cdd9f0.sol\":3722:3726  from */\n      dup5\n        /* \"contract-23c7cdd9f0.sol\":3711:3727  _balanceOf[from] */\n      0xffffffffffffffffffffffffffffffffffffffff\n      and\n      0xffffffffffffffffffffffffffffffffffffffff\n      and\n      dup2\n      mstore\n      0x20\n      add\n      swap1\n      dup2\n      mstore\n      0x20\n      add\n      0x00\n      keccak256\n      0x00\n        /* \"contract-23c7cdd9f0.sol\":3711:3729  _balanceOf[from]-- */\n      dup2\n      sload\n      dup1\n      swap3\n      swap2\n      swap1\n      tag_87\n      swap1\n      tag_88\n      jump\t// in\n    tag_87:\n      swap2\n      swap1\n      pop\n      sstore\n      pop\n        /* \"contract-23c7cdd9f0.sol\":3739:3749  _balanceOf */\n      0x02\n        /* \"contract-23c7cdd9f0.sol\":3739:3753  _balanceOf[to] */\n      0x00\n        /* \"contract-23c7cdd9f0.sol\":3750:3752  to */\n      dup4\n        /* \"contract-23c7cdd9f0.sol\":3739:3753  _balanceOf[to] */\n      0xffffffffffffffffffffffffffffffffffffffff\n      and\n      0xffffffffffffffffffffffffffffffffffffffff\n      and\n      dup2\n      mstore\n      0x20\n      add\n      swap1\n      dup2\n      mstore\n      0x20\n      add\n      0x00\n      keccak256\n      0x00\n        /* \"contract-23c7cdd9f0.sol\":3739:3755  _balanceOf[to]++ */\n      dup2\n      sload\n      dup1\n      swap3\n      swap2\n      swap1\n      tag_89\n      swap1\n      tag_90\n      jump\t// in\n    tag_89:\n      swap2\n      swap1\n      pop\n      sstore\n      pop\n        /* \"contract-23c7cdd9f0.sol\":3780:3782  to */\n      dup2\n        /* \"contract-23c7cdd9f0.sol\":3765:3773  _ownerOf */\n      0x01\n        /* \"contract-23c7cdd9f0.sol\":3765:3777  _ownerOf[id] */\n      0x00\n        /* \"contract-23c7cdd9f0.sol\":3774:3776  id */\n      dup4\n        /* \"contract-23c7cdd9f0.sol\":3765:3777  _ownerOf[id] */\n      dup2\n      mstore\n      0x20\n      add\n      swap1\n      dup2\n      mstore\n      0x20\n      add\n      0x00\n      keccak256\n      0x00\n        /* \"contract-23c7cdd9f0.sol\":3765:3782  _ownerOf[id] = to */\n      0x0100\n      exp\n      dup2\n      sload\n      dup2\n      0xffffffffffffffffffffffffffffffffffffffff\n      mul\n      not\n      and\n      swap1\n      dup4\n      0xffffffffffffffffffffffffffffffffffffffff\n      and\n      mul\n      or\n      swap1\n      sstore\n      pop\n        /* \"contract-23c7cdd9f0.sol\":3800:3810  _approvals */\n      0x03\n        /* \"contract-23c7cdd9f0.sol\":3800:3814  _approvals[id] */\n      0x00\n        /* \"contract-23c7cdd9f0.sol\":3811:3813  id */\n      dup3\n        /* \"contract-23c7cdd9f0.sol\":3800:3814  _approvals[id] */\n      dup2\n      mstore\n      0x20\n      add\n      swap1\n      dup2\n      mstore\n      0x20\n      add\n      0x00\n      keccak256\n      0x00\n        /* \"contract-23c7cdd9f0.sol\":3793:3814  delete _approvals[id] */\n      0x0100\n      exp\n      dup2\n      sload\n      swap1\n      0xffffffffffffffffffffffffffffffffffffffff\n      mul\n      not\n      and\n      swap1\n      sstore\n        /* \"contract-23c7cdd9f0.sol\":3849:3851  id */\n      dup1\n        /* \"contract-23c7cdd9f0.sol\":3845:3847  to */\n      dup3\n        /* \"contract-23c7cdd9f0.sol\":3830:3852  Transfer(from, to, id) */\n      0xffffffffffffffffffffffffffffffffffffffff\n      and\n        /* \"contract-23c7cdd9f0.sol\":3839:3843  from */\n      dup5\n        /* \"contract-23c7cdd9f0.sol\":3830:3852  Transfer(from, to, id) */\n      0xffffffffffffffffffffffffffffffffffffffff\n      and\n      0xddf252ad1be2c89b69c2b068fc378daa952ba7f163c4a11628f55a4df523b3ef\n      mload(0x40)\n      mload(0x40)\n      dup1\n      swap2\n      sub\n      swap1\n      log4\n        /* \"contract-23c7cdd9f0.sol\":3439:3859  function transferFrom(address from, address to, uint id) public {... */\n      pop\n      pop\n      pop\n      jump\t// out\n        /* \"contract-23c7cdd9f0.sol\":3865:4214  function safeTransferFrom(address from, address to, uint id) external {... */\n    tag_37:\n        /* \"contract-23c7cdd9f0.sol\":3945:3971  transferFrom(from, to, id) */\n      tag_92\n        /* \"contract-23c7cdd9f0.sol\":3958:3962  from */\n      dup4\n        /* \"contract-23c7cdd9f0.sol\":3964:3966  to */\n      dup4\n        /* \"contract-23c7cdd9f0.sol\":3968:3970  id */\n      dup4\n        /* \"contract-23c7cdd9f0.sol\":3945:3957  transferFrom */\n      tag_34\n        /* \"contract-23c7cdd9f0.sol\":3945:3971  transferFrom(from, to, id) */\n      jump\t// in\n    tag_92:\n        /* \"contract-23c7cdd9f0.sol\":4021:4022  0 */\n      0x00\n        /* \"contract-23c7cdd9f0.sol\":4003:4005  to */\n      dup3\n        /* \"contract-23c7cdd9f0.sol\":4003:4017  to.code.length */\n      0xffffffffffffffffffffffffffffffffffffffff\n      and\n      extcodesize\n        /* \"contract-23c7cdd9f0.sol\":4003:4022  to.code.length == 0 */\n      eq\n        /* \"contract-23c7cdd9f0.sol\":4003:4165  to.code.length == 0 ||... */\n      dup1\n      tag_93\n      jumpi\n      pop\n        /* \"contract-23c7cdd9f0.sol\":4124:4165  IERC721Receiver.onERC721Received.selector */\n      shl(0xe0, 0x150b7a02)\n        /* \"contract-23c7cdd9f0.sol\":4042:4165  IERC721Receiver(to).onERC721Received(msg.sender, from, id, \"\") ==... */\n      not(0xffffffffffffffffffffffffffffffffffffffffffffffffffffffff)\n      and\n        /* \"contract-23c7cdd9f0.sol\":4058:4060  to */\n      dup3\n        /* \"contract-23c7cdd9f0.sol\":4042:4078  IERC721Receiver(to).onERC721Received */\n      0xffffffffffffffffffffffffffffffffffffffff\n      and\n      0x150b7a02\n        /* \"contract-23c7cdd9f0.sol\":4079:4089  msg.sender */\n      caller\n        /* \"contract-23c7cdd9f0.sol\":4091:4095  from */\n      dup7\n        /* \"contract-23c7cdd9f0.sol\":4097:4099  id */\n      dup6\n        /* \"contract-23c7cdd9f0.sol\":4042:4104  IERC721Receiver(to).onERC721Received(msg.sender, from, id, \"\") */\n      mload(0x40)\n      dup5\n      0xffffffff\n      and\n      0xe0\n      shl\n      dup2\n      mstore\n      0x04\n      add\n      tag_94\n      swap4\n      swap3\n      swap2\n      swap1\n      tag_95\n      jump\t// in\n    tag_94:\n      0x20\n      mload(0x40)\n      dup1\n      dup4\n      sub\n      dup2\n      0x00\n      dup8\n      gas\n      call\n      iszero\n      dup1\n      iszero\n      tag_97\n      jumpi\n      returndatasize\n      0x00\n      dup1\n      returndatacopy\n      revert(0x00, returndatasize)\n    tag_97:\n      pop\n      pop\n      pop\n      pop\n      mload(0x40)\n      returndatasize\n      not(0x1f)\n      0x1f\n      dup3\n      add\n      and\n      dup3\n      add\n      dup1\n      0x40\n      mstore\n      pop\n      dup2\n      add\n      swap1\n      tag_98\n      swap2\n      swap1\n      tag_99\n      jump\t// in\n    tag_98:\n        /* \"contract-23c7cdd9f0.sol\":4042:4165  IERC721Receiver(to).onERC721Received(msg.sender, from, id, \"\") ==... */\n      not(0xffffffffffffffffffffffffffffffffffffffffffffffffffffffff)\n      and\n      eq\n        /* \"contract-23c7cdd9f0.sol\":4003:4165  to.code.length == 0 ||... */\n    tag_93:\n        /* \"contract-23c7cdd9f0.sol\":3982:4207  require(... */\n      tag_100\n      jumpi\n      mload(0x40)\n      0x08c379a000000000000000000000000000000000000000000000000000000000\n      dup2\n      mstore\n      0x04\n      add\n      tag_101\n      swap1\n      tag_102\n      jump\t// in\n    tag_101:\n      mload(0x40)\n      dup1\n      swap2\n      sub\n      swap1\n      revert\n    tag_100:\n        /* \"contract-23c7cdd9f0.sol\":3865:4214  function safeTransferFrom(address from, address to, uint id) external {... */\n      pop\n      pop\n      pop\n      jump\t// out\n        /* \"contract-23c7cdd9f0.sol\":1203:1229  address[] public whiteList */\n    tag_40:\n      0x00\n      dup2\n      dup2\n      sload\n      dup2\n      lt\n      tag_103\n      jumpi\n      0x00\n      dup1\n      revert\n    tag_103:\n      swap1\n      0x00\n      mstore\n      keccak256(0x00, 0x20)\n      add\n      0x00\n      swap2\n      pop\n      sload\n      swap1\n      0x0100\n      exp\n      swap1\n      div\n      0xffffffffffffffffffffffffffffffffffffffff\n      and\n      dup2\n      jump\t// out\n        /* \"contract-23c7cdd9f0.sol\":2147:2309  function ownerOf(uint id) external view returns (address owner) {... */\n    tag_44:\n        /* \"contract-23c7cdd9f0.sol\":2196:2209  address owner */\n      0x00\n        /* \"contract-23c7cdd9f0.sol\":2229:2237  _ownerOf */\n      0x01\n        /* \"contract-23c7cdd9f0.sol\":2229:2241  _ownerOf[id] */\n      0x00\n        /* \"contract-23c7cdd9f0.sol\":2238:2240  id */\n      dup4\n        /* \"contract-23c7cdd9f0.sol\":2229:2241  _ownerOf[id] */\n      dup2\n      mstore\n      0x20\n      add\n      swap1\n      dup2\n      mstore\n      0x20\n      add\n      0x00\n      keccak256\n      0x00\n      swap1\n      sload\n      swap1\n      0x0100\n      exp\n      swap1\n      div\n      0xffffffffffffffffffffffffffffffffffffffff\n      and\n        /* \"contract-23c7cdd9f0.sol\":2221:2241  owner = _ownerOf[id] */\n      swap1\n      pop\n        /* \"contract-23c7cdd9f0.sol\":2276:2277  0 */\n      0x00\n        /* \"contract-23c7cdd9f0.sol\":2259:2278  owner != address(0) */\n      0xffffffffffffffffffffffffffffffffffffffff\n      and\n        /* \"contract-23c7cdd9f0.sol\":2259:2264  owner */\n      dup2\n        /* \"contract-23c7cdd9f0.sol\":2259:2278  owner != address(0) */\n      0xffffffffffffffffffffffffffffffffffffffff\n      and\n      sub\n        /* \"contract-23c7cdd9f0.sol\":2251:2302  require(owner != address(0), \"token doesn't exist\") */\n      tag_106\n      jumpi\n      mload(0x40)\n      0x08c379a000000000000000000000000000000000000000000000000000000000\n      dup2\n      mstore\n      0x04\n      add\n      tag_107\n      swap1\n      tag_70\n      jump\t// in\n    tag_107:\n      mload(0x40)\n      dup1\n      swap2\n      sub\n      swap1\n      revert\n    tag_106:\n        /* \"contract-23c7cdd9f0.sol\":2147:2309  function ownerOf(uint id) external view returns (address owner) {... */\n      swap2\n      swap1\n      pop\n      jump\t// out\n        /* \"contract-23c7cdd9f0.sol\":2315:2481  function balanceOf(address owner) external view returns (uint) {... */\n    tag_49:\n        /* \"contract-23c7cdd9f0.sol\":2372:2376  uint */\n      0x00\n        /* \"contract-23c7cdd9f0.sol\":2413:2414  0 */\n      dup1\n        /* \"contract-23c7cdd9f0.sol\":2396:2415  owner != address(0) */\n      0xffffffffffffffffffffffffffffffffffffffff\n      and\n        /* \"contract-23c7cdd9f0.sol\":2396:2401  owner */\n      dup3\n        /* \"contract-23c7cdd9f0.sol\":2396:2415  owner != address(0) */\n      0xffffffffffffffffffffffffffffffffffffffff\n      and\n      sub\n        /* \"contract-23c7cdd9f0.sol\":2388:2440  require(owner != address(0), \"owner = zero address\") */\n      tag_109\n      jumpi\n      mload(0x40)\n      0x08c379a000000000000000000000000000000000000000000000000000000000\n      dup2\n      mstore\n      0x04\n      add\n      tag_110\n      swap1\n      tag_111\n      jump\t// in\n    tag_110:\n      mload(0x40)\n      dup1\n      swap2\n      sub\n      swap1\n      revert\n    tag_109:\n        /* \"contract-23c7cdd9f0.sol\":2457:2467  _balanceOf */\n      0x02\n        /* \"contract-23c7cdd9f0.sol\":2457:2474  _balanceOf[owner] */\n      0x00\n        /* \"contract-23c7cdd9f0.sol\":2468:2473  owner */\n      dup4\n        /* \"contract-23c7cdd9f0.sol\":2457:2474  _balanceOf[owner] */\n      0xffffffffffffffffffffffffffffffffffffffff\n      and\n      0xffffffffffffffffffffffffffffffffffffffff\n      and\n      dup2\n      mstore\n      0x20\n      add\n      swap1\n      dup2\n      mstore\n      0x20\n      add\n      0x00\n      keccak256\n      sload\n        /* \"contract-23c7cdd9f0.sol\":2450:2474  return _balanceOf[owner] */\n      swap1\n      pop\n        /* \"contract-23c7cdd9f0.sol\":2315:2481  function balanceOf(address owner) external view returns (uint) {... */\n      swap2\n      swap1\n      pop\n      jump\t// out\n        /* \"contract-23c7cdd9f0.sol\":2487:2683  function setApprovalForAll(address operator, bool approved) external {... */\n    tag_55:\n        /* \"contract-23c7cdd9f0.sol\":2607:2615  approved */\n      dup1\n        /* \"contract-23c7cdd9f0.sol\":2566:2582  isApprovedForAll */\n      0x04\n        /* \"contract-23c7cdd9f0.sol\":2566:2594  isApprovedForAll[msg.sender] */\n      0x00\n        /* \"contract-23c7cdd9f0.sol\":2583:2593  msg.sender */\n      caller\n        /* \"contract-23c7cdd9f0.sol\":2566:2594  isApprovedForAll[msg.sender] */\n      0xffffffffffffffffffffffffffffffffffffffff\n      and\n      0xffffffffffffffffffffffffffffffffffffffff\n      and\n      dup2\n      mstore\n      0x20\n      add\n      swap1\n      dup2\n      mstore\n      0x20\n      add\n      0x00\n      keccak256\n        /* \"contract-23c7cdd9f0.sol\":2566:2604  isApprovedForAll[msg.sender][operator] */\n      0x00\n        /* \"contract-23c7cdd9f0.sol\":2595:2603  operator */\n      dup5\n        /* \"contract-23c7cdd9f0.sol\":2566:2604  isApprovedForAll[msg.sender][operator] */\n      0xffffffffffffffffffffffffffffffffffffffff\n      and\n      0xffffffffffffffffffffffffffffffffffffffff\n      and\n      dup2\n      mstore\n      0x20\n      add\n      swap1\n      dup2\n      mstore\n      0x20\n      add\n      0x00\n      keccak256\n      0x00\n        /* \"contract-23c7cdd9f0.sol\":2566:2615  isApprovedForAll[msg.sender][operator] = approved */\n      0x0100\n      exp\n      dup2\n      sload\n      dup2\n      0xff\n      mul\n      not\n      and\n      swap1\n      dup4\n      iszero\n      iszero\n      mul\n      or\n      swap1\n      sstore\n      pop\n        /* \"contract-23c7cdd9f0.sol\":2657:2665  operator */\n      dup2\n        /* \"contract-23c7cdd9f0.sol\":2630:2676  ApprovalForAll(msg.sender, operator, approved) */\n      0xffffffffffffffffffffffffffffffffffffffff\n      and\n        /* \"contract-23c7cdd9f0.sol\":2645:2655  msg.sender */\n      caller\n        /* \"contract-23c7cdd9f0.sol\":2630:2676  ApprovalForAll(msg.sender, operator, approved) */\n      0xffffffffffffffffffffffffffffffffffffffff\n      and\n      0x17307eab39ab6107e8899845ad3d59bd9653f200f220920489ca2b5937696c31\n        /* \"contract-23c7cdd9f0.sol\":2667:2675  approved */\n      dup4\n        /* \"contract-23c7cdd9f0.sol\":2630:2676  ApprovalForAll(msg.sender, operator, approved) */\n      mload(0x40)\n      tag_113\n      swap2\n      swap1\n      tag_20\n      jump\t// in\n    tag_113:\n      mload(0x40)\n      dup1\n      swap2\n      sub\n      swap1\n      log3\n        /* \"contract-23c7cdd9f0.sol\":2487:2683  function setApprovalForAll(address operator, bool approved) external {... */\n      pop\n      pop\n      jump\t// out\n        /* \"contract-23c7cdd9f0.sol\":4220:4630  function safeTransferFrom(... */\n    tag_59:\n        /* \"contract-23c7cdd9f0.sol\":4359:4385  transferFrom(from, to, id) */\n      tag_115\n        /* \"contract-23c7cdd9f0.sol\":4372:4376  from */\n      dup6\n        /* \"contract-23c7cdd9f0.sol\":4378:4380  to */\n      dup6\n        /* \"contract-23c7cdd9f0.sol\":4382:4384  id */\n      dup6\n        /* \"contract-23c7cdd9f0.sol\":4359:4371  transferFrom */\n      tag_34\n        /* \"contract-23c7cdd9f0.sol\":4359:4385  transferFrom(from, to, id) */\n      jump\t// in\n    tag_115:\n        /* \"contract-23c7cdd9f0.sol\":4435:4436  0 */\n      0x00\n        /* \"contract-23c7cdd9f0.sol\":4417:4419  to */\n      dup5\n        /* \"contract-23c7cdd9f0.sol\":4417:4431  to.code.length */\n      0xffffffffffffffffffffffffffffffffffffffff\n      and\n      extcodesize\n        /* \"contract-23c7cdd9f0.sol\":4417:4436  to.code.length == 0 */\n      eq\n        /* \"contract-23c7cdd9f0.sol\":4417:4581  to.code.length == 0 ||... */\n      dup1\n      tag_116\n      jumpi\n      pop\n        /* \"contract-23c7cdd9f0.sol\":4540:4581  IERC721Receiver.onERC721Received.selector */\n      shl(0xe0, 0x150b7a02)\n        /* \"contract-23c7cdd9f0.sol\":4456:4581  IERC721Receiver(to).onERC721Received(msg.sender, from, id, data) ==... */\n      not(0xffffffffffffffffffffffffffffffffffffffffffffffffffffffff)\n      and\n        /* \"contract-23c7cdd9f0.sol\":4472:4474  to */\n      dup5\n        /* \"contract-23c7cdd9f0.sol\":4456:4492  IERC721Receiver(to).onERC721Received */\n      0xffffffffffffffffffffffffffffffffffffffff\n      and\n      0x150b7a02\n        /* \"contract-23c7cdd9f0.sol\":4493:4503  msg.sender */\n      caller\n        /* \"contract-23c7cdd9f0.sol\":4505:4509  from */\n      dup9\n        /* \"contract-23c7cdd9f0.sol\":4511:4513  id */\n      dup8\n        /* \"contract-23c7cdd9f0.sol\":4515:4519  data */\n      dup8\n      dup8\n        /* \"contract-23c7cdd9f0.sol\":4456:4520  IERC721Receiver(to).onERC721Received(msg.sender, from, id, data) */\n      mload(0x40)\n      dup7\n      0xffffffff\n      and\n      0xe0\n      shl\n      dup2\n      mstore\n      0x04\n      add\n      tag_117\n      swap6\n      swap5\n      swap4\n      swap3\n      swap2\n      swap1\n      tag_118\n      jump\t// in\n    tag_117:\n      0x20\n      mload(0x40)\n      dup1\n      dup4\n      sub\n      dup2\n      0x00\n      dup8\n      gas\n      call\n      iszero\n      dup1\n      iszero\n      tag_120\n      jumpi\n      returndatasize\n      0x00\n      dup1\n      returndatacopy\n      revert(0x00, returndatasize)\n    tag_120:\n      pop\n      pop\n      pop\n      pop\n      mload(0x40)\n      returndatasize\n      not(0x1f)\n      0x1f\n      dup3\n      add\n      and\n      dup3\n      add\n      dup1\n      0x40\n      mstore\n      pop\n      dup2\n      add\n      swap1\n      tag_121\n      swap2\n      swap1\n      tag_99\n      jump\t// in\n    tag_121:\n        /* \"contract-23c7cdd9f0.sol\":4456:4581  IERC721Receiver(to).onERC721Received(msg.sender, from, id, data) ==... */\n      not(0xffffffffffffffffffffffffffffffffffffffffffffffffffffffff)\n      and\n      eq\n        /* \"contract-23c7cdd9f0.sol\":4417:4581  to.code.length == 0 ||... */\n    tag_116:\n        /* \"contract-23c7cdd9f0.sol\":4396:4623  require(... */\n      tag_122\n      jumpi\n      mload(0x40)\n      0x08c379a000000000000000000000000000000000000000000000000000000000\n      dup2\n      mstore\n      0x04\n      add\n      tag_123\n      swap1\n      tag_102\n      jump\t// in\n    tag_123:\n      mload(0x40)\n      dup1\n      swap2\n      sub\n      swap1\n      revert\n    tag_122:\n        /* \"contract-23c7cdd9f0.sol\":4220:4630  function safeTransferFrom(... */\n      pop\n      pop\n      pop\n      pop\n      pop\n      jump\t// out\n        /* \"contract-23c7cdd9f0.sol\":1858:1926  mapping(address => mapping(address => bool)) public isApprovedForAll */\n    tag_63:\n      mstore(0x20, 0x04)\n      dup2\n      0x00\n      mstore\n      mstore(0x20, keccak256(0x00, 0x40))\n      dup1\n      0x00\n      mstore\n      keccak256(0x00, 0x40)\n      0x00\n      swap2\n      pop\n      swap2\n      pop\n      swap1\n      sload\n      swap1\n      0x0100\n      exp\n      swap1\n      div\n      0xff\n      and\n      dup2\n      jump\t// out\n        /* \"contract-23c7cdd9f0.sol\":3174:3433  function _isApprovedOrOwner(... */\n    tag_84:\n        /* \"contract-23c7cdd9f0.sol\":3296:3300  bool */\n      0x00\n        /* \"contract-23c7cdd9f0.sol\":3331:3336  owner */\n      dup4\n        /* \"contract-23c7cdd9f0.sol\":3320:3336  spender == owner */\n      0xffffffffffffffffffffffffffffffffffffffff\n      and\n        /* \"contract-23c7cdd9f0.sol\":3320:3327  spender */\n      dup4\n        /* \"contract-23c7cdd9f0.sol\":3320:3336  spender == owner */\n      0xffffffffffffffffffffffffffffffffffffffff\n      and\n      eq\n        /* \"contract-23c7cdd9f0.sol\":3320:3384  spender == owner ||... */\n      dup1\n      tag_125\n      jumpi\n      pop\n        /* \"contract-23c7cdd9f0.sol\":3352:3368  isApprovedForAll */\n      0x04\n        /* \"contract-23c7cdd9f0.sol\":3352:3375  isApprovedForAll[owner] */\n      0x00\n        /* \"contract-23c7cdd9f0.sol\":3369:3374  owner */\n      dup6\n        /* \"contract-23c7cdd9f0.sol\":3352:3375  isApprovedForAll[owner] */\n      0xffffffffffffffffffffffffffffffffffffffff\n      and\n      0xffffffffffffffffffffffffffffffffffffffff\n      and\n      dup2\n      mstore\n      0x20\n      add\n      swap1\n      dup2\n      mstore\n      0x20\n      add\n      0x00\n      keccak256\n        /* \"contract-23c7cdd9f0.sol\":3352:3384  isApprovedForAll[owner][spender] */\n      0x00\n        /* \"contract-23c7cdd9f0.sol\":3376:3383  spender */\n      dup5\n        /* \"contract-23c7cdd9f0.sol\":3352:3384  isApprovedForAll[owner][spender] */\n      0xffffffffffffffffffffffffffffffffffffffff\n      and\n      0xffffffffffffffffffffffffffffffffffffffff\n      and\n      dup2\n      mstore\n      0x20\n      add\n      swap1\n      dup2\n      mstore\n      0x20\n      add\n      0x00\n      keccak256\n      0x00\n      swap1\n      sload\n      swap1\n      0x0100\n      exp\n      swap1\n      div\n      0xff\n      and\n        /* \"contract-23c7cdd9f0.sol\":3320:3384  spender == owner ||... */\n    tag_125:\n        /* \"contract-23c7cdd9f0.sol\":3320:3425  spender == owner ||... */\n      dup1\n      tag_126\n      jumpi\n      pop\n        /* \"contract-23c7cdd9f0.sol\":3411:3421  _approvals */\n      0x03\n        /* \"contract-23c7cdd9f0.sol\":3411:3425  _approvals[id] */\n      0x00\n        /* \"contract-23c7cdd9f0.sol\":3422:3424  id */\n      dup4\n        /* \"contract-23c7cdd9f0.sol\":3411:3425  _approvals[id] */\n      dup2\n      mstore\n      0x20\n      add\n      swap1\n      dup2\n      mstore\n      0x20\n      add\n      0x00\n      keccak256\n      0x00\n      swap1\n      sload\n      swap1\n      0x0100\n      exp\n      swap1\n      div\n      0xffffffffffffffffffffffffffffffffffffffff\n      and\n        /* \"contract-23c7cdd9f0.sol\":3400:3425  spender == _approvals[id] */\n      0xffffffffffffffffffffffffffffffffffffffff\n      and\n        /* \"contract-23c7cdd9f0.sol\":3400:3407  spender */\n      dup4\n        /* \"contract-23c7cdd9f0.sol\":3400:3425  spender == _approvals[id] */\n      0xffffffffffffffffffffffffffffffffffffffff\n      and\n      eq\n        /* \"contract-23c7cdd9f0.sol\":3320:3425  spender == owner ||... */\n    tag_126:\n        /* \"contract-23c7cdd9f0.sol\":3312:3426  return (spender == owner ||... */\n      swap1\n      pop\n        /* \"contract-23c7cdd9f0.sol\":3174:3433  function _isApprovedOrOwner(... */\n      swap4\n      swap3\n      pop\n      pop\n      pop\n      jump\t// out\n        /* \"#utility.yul\":88:205   */\n    tag_128:\n        /* \"#utility.yul\":197:198   */\n      0x00\n        /* \"#utility.yul\":194:195   */\n      dup1\n        /* \"#utility.yul\":187:199   */\n      revert\n        /* \"#utility.yul\":211:328   */\n    tag_129:\n        /* \"#utility.yul\":320:321   */\n      0x00\n        /* \"#utility.yul\":317:318   */\n      dup1\n        /* \"#utility.yul\":310:322   */\n      revert\n        /* \"#utility.yul\":334:483   */\n    tag_130:\n        /* \"#utility.yul\":370:377   */\n      0x00\n        /* \"#utility.yul\":410:476   */\n      0xffffffff00000000000000000000000000000000000000000000000000000000\n        /* \"#utility.yul\":403:408   */\n      dup3\n        /* \"#utility.yul\":399:477   */\n      and\n        /* \"#utility.yul\":388:477   */\n      swap1\n      pop\n        /* \"#utility.yul\":334:483   */\n      swap2\n      swap1\n      pop\n      jump\t// out\n        /* \"#utility.yul\":489:609   */\n    tag_131:\n        /* \"#utility.yul\":561:584   */\n      tag_177\n        /* \"#utility.yul\":578:583   */\n      dup2\n        /* \"#utility.yul\":561:584   */\n      tag_130\n      jump\t// in\n    tag_177:\n        /* \"#utility.yul\":554:559   */\n      dup2\n        /* \"#utility.yul\":551:585   */\n      eq\n        /* \"#utility.yul\":541:603   */\n      tag_178\n      jumpi\n        /* \"#utility.yul\":599:600   */\n      0x00\n        /* \"#utility.yul\":596:597   */\n      dup1\n        /* \"#utility.yul\":589:601   */\n      revert\n        /* \"#utility.yul\":541:603   */\n    tag_178:\n        /* \"#utility.yul\":489:609   */\n      pop\n      jump\t// out\n        /* \"#utility.yul\":615:752   */\n    tag_132:\n        /* \"#utility.yul\":660:665   */\n      0x00\n        /* \"#utility.yul\":698:704   */\n      dup2\n        /* \"#utility.yul\":685:705   */\n      calldataload\n        /* \"#utility.yul\":676:705   */\n      swap1\n      pop\n        /* \"#utility.yul\":714:746   */\n      tag_180\n        /* \"#utility.yul\":740:745   */\n      dup2\n        /* \"#utility.yul\":714:746   */\n      tag_131\n      jump\t// in\n    tag_180:\n        /* \"#utility.yul\":615:752   */\n      swap3\n      swap2\n      pop\n      pop\n      jump\t// out\n        /* \"#utility.yul\":758:1085   */\n    tag_17:\n        /* \"#utility.yul\":816:822   */\n      0x00\n        /* \"#utility.yul\":865:867   */\n      0x20\n        /* \"#utility.yul\":853:862   */\n      dup3\n        /* \"#utility.yul\":844:851   */\n      dup5\n        /* \"#utility.yul\":840:863   */\n      sub\n        /* \"#utility.yul\":836:868   */\n      slt\n        /* \"#utility.yul\":833:952   */\n      iszero\n      tag_182\n      jumpi\n        /* \"#utility.yul\":871:950   */\n      tag_183\n      tag_128\n      jump\t// in\n    tag_183:\n        /* \"#utility.yul\":833:952   */\n    tag_182:\n        /* \"#utility.yul\":991:992   */\n      0x00\n        /* \"#utility.yul\":1016:1068   */\n      tag_184\n        /* \"#utility.yul\":1060:1067   */\n      dup5\n        /* \"#utility.yul\":1051:1057   */\n      dup3\n        /* \"#utility.yul\":1040:1049   */\n      dup6\n        /* \"#utility.yul\":1036:1058   */\n      add\n        /* \"#utility.yul\":1016:1068   */\n      tag_132\n      jump\t// in\n    tag_184:\n        /* \"#utility.yul\":1006:1068   */\n      swap2\n      pop\n        /* \"#utility.yul\":962:1078   */\n      pop\n        /* \"#utility.yul\":758:1085   */\n      swap3\n      swap2\n      pop\n      pop\n      jump\t// out\n        /* \"#utility.yul\":1091:1181   */\n    tag_133:\n        /* \"#utility.yul\":1125:1132   */\n      0x00\n        /* \"#utility.yul\":1168:1173   */\n      dup2\n        /* \"#utility.yul\":1161:1174   */\n      iszero\n        /* \"#utility.yul\":1154:1175   */\n      iszero\n        /* \"#utility.yul\":1143:1175   */\n      swap1\n      pop\n        /* \"#utility.yul\":1091:1181   */\n      swap2\n      swap1\n      pop\n      jump\t// out\n        /* \"#utility.yul\":1187:1296   */\n    tag_134:\n        /* \"#utility.yul\":1268:1289   */\n      tag_187\n        /* \"#utility.yul\":1283:1288   */\n      dup2\n        /* \"#utility.yul\":1268:1289   */\n      tag_133\n      jump\t// in\n    tag_187:\n        /* \"#utility.yul\":1263:1266   */\n      dup3\n        /* \"#utility.yul\":1256:1290   */\n      mstore\n        /* \"#utility.yul\":1187:1296   */\n      pop\n      pop\n      jump\t// out\n        /* \"#utility.yul\":1302:1512   */\n    tag_20:\n        /* \"#utility.yul\":1389:1393   */\n      0x00\n        /* \"#utility.yul\":1427:1429   */\n      0x20\n        /* \"#utility.yul\":1416:1425   */\n      dup3\n        /* \"#utility.yul\":1412:1430   */\n      add\n        /* \"#utility.yul\":1404:1430   */\n      swap1\n      pop\n        /* \"#utility.yul\":1440:1505   */\n      tag_189\n        /* \"#utility.yul\":1502:1503   */\n      0x00\n        /* \"#utility.yul\":1491:1500   */\n      dup4\n        /* \"#utility.yul\":1487:1504   */\n      add\n        /* \"#utility.yul\":1478:1484   */\n      dup5\n        /* \"#utility.yul\":1440:1505   */\n      tag_134\n      jump\t// in\n    tag_189:\n        /* \"#utility.yul\":1302:1512   */\n      swap3\n      swap2\n      pop\n      pop\n      jump\t// out\n        /* \"#utility.yul\":1518:1595   */\n    tag_135:\n        /* \"#utility.yul\":1555:1562   */\n      0x00\n        /* \"#utility.yul\":1584:1589   */\n      dup2\n        /* \"#utility.yul\":1573:1589   */\n      swap1\n      pop\n        /* \"#utility.yul\":1518:1595   */\n      swap2\n      swap1\n      pop\n      jump\t// out\n        /* \"#utility.yul\":1601:1723   */\n    tag_136:\n        /* \"#utility.yul\":1674:1698   */\n      tag_192\n        /* \"#utility.yul\":1692:1697   */\n      dup2\n        /* \"#utility.yul\":1674:1698   */\n      tag_135\n      jump\t// in\n    tag_192:\n        /* \"#utility.yul\":1667:1672   */\n      dup2\n        /* \"#utility.yul\":1664:1699   */\n      eq\n        /* \"#utility.yul\":1654:1717   */\n      tag_193\n      jumpi\n        /* \"#utility.yul\":1713:1714   */\n      0x00\n        /* \"#utility.yul\":1710:1711   */\n      dup1\n        /* \"#utility.yul\":1703:1715   */\n      revert\n        /* \"#utility.yul\":1654:1717   */\n    tag_193:\n        /* \"#utility.yul\":1601:1723   */\n      pop\n      jump\t// out\n        /* \"#utility.yul\":1729:1868   */\n    tag_137:\n        /* \"#utility.yul\":1775:1780   */\n      0x00\n        /* \"#utility.yul\":1813:1819   */\n      dup2\n        /* \"#utility.yul\":1800:1820   */\n      calldataload\n        /* \"#utility.yul\":1791:1820   */\n      swap1\n      pop\n        /* \"#utility.yul\":1829:1862   */\n      tag_195\n        /* \"#utility.yul\":1856:1861   */\n      dup2\n        /* \"#utility.yul\":1829:1862   */\n      tag_136\n      jump\t// in\n    tag_195:\n        /* \"#utility.yul\":1729:1868   */\n      swap3\n      swap2\n      pop\n      pop\n      jump\t// out\n        /* \"#utility.yul\":1874:2203   */\n    tag_23:\n        /* \"#utility.yul\":1933:1939   */\n      0x00\n        /* \"#utility.yul\":1982:1984   */\n      0x20\n        /* \"#utility.yul\":1970:1979   */\n      dup3\n        /* \"#utility.yul\":1961:1968   */\n      dup5\n        /* \"#utility.yul\":1957:1980   */\n      sub\n        /* \"#utility.yul\":1953:1985   */\n      slt\n        /* \"#utility.yul\":1950:2069   */\n      iszero\n      tag_197\n      jumpi\n        /* \"#utility.yul\":1988:2067   */\n      tag_198\n      tag_128\n      jump\t// in\n    tag_198:\n        /* \"#utility.yul\":1950:2069   */\n    tag_197:\n        /* \"#utility.yul\":2108:2109   */\n      0x00\n        /* \"#utility.yul\":2133:2186   */\n      tag_199\n        /* \"#utility.yul\":2178:2185   */\n      dup5\n        /* \"#utility.yul\":2169:2175   */\n      dup3\n        /* \"#utility.yul\":2158:2167   */\n      dup6\n        /* \"#utility.yul\":2154:2176   */\n      add\n        /* \"#utility.yul\":2133:2186   */\n      tag_137\n      jump\t// in\n    tag_199:\n        /* \"#utility.yul\":2123:2186   */\n      swap2\n      pop\n        /* \"#utility.yul\":2079:2196   */\n      pop\n        /* \"#utility.yul\":1874:2203   */\n      swap3\n      swap2\n      pop\n      pop\n      jump\t// out\n        /* \"#utility.yul\":2209:2335   */\n    tag_138:\n        /* \"#utility.yul\":2246:2253   */\n      0x00\n        /* \"#utility.yul\":2286:2328   */\n      0xffffffffffffffffffffffffffffffffffffffff\n        /* \"#utility.yul\":2279:2284   */\n      dup3\n        /* \"#utility.yul\":2275:2329   */\n      and\n        /* \"#utility.yul\":2264:2329   */\n      swap1\n      pop\n        /* \"#utility.yul\":2209:2335   */\n      swap2\n      swap1\n      pop\n      jump\t// out\n        /* \"#utility.yul\":2341:2437   */\n    tag_139:\n        /* \"#utility.yul\":2378:2385   */\n      0x00\n        /* \"#utility.yul\":2407:2431   */\n      tag_202\n        /* \"#utility.yul\":2425:2430   */\n      dup3\n        /* \"#utility.yul\":2407:2431   */\n      tag_138\n      jump\t// in\n    tag_202:\n        /* \"#utility.yul\":2396:2431   */\n      swap1\n      pop\n        /* \"#utility.yul\":2341:2437   */\n      swap2\n      swap1\n      pop\n      jump\t// out\n        /* \"#utility.yul\":2443:2561   */\n    tag_140:\n        /* \"#utility.yul\":2530:2554   */\n      tag_204\n        /* \"#utility.yul\":2548:2553   */\n      dup2\n        /* \"#utility.yul\":2530:2554   */\n      tag_139\n      jump\t// in\n    tag_204:\n        /* \"#utility.yul\":2525:2528   */\n      dup3\n        /* \"#utility.yul\":2518:2555   */\n      mstore\n        /* \"#utility.yul\":2443:2561   */\n      pop\n      pop\n      jump\t// out\n        /* \"#utility.yul\":2567:2789   */\n    tag_26:\n        /* \"#utility.yul\":2660:2664   */\n      0x00\n        /* \"#utility.yul\":2698:2700   */\n      0x20\n        /* \"#utility.yul\":2687:2696   */\n      dup3\n        /* \"#utility.yul\":2683:2701   */\n      add\n        /* \"#utility.yul\":2675:2701   */\n      swap1\n      pop\n        /* \"#utility.yul\":2711:2782   */\n      tag_206\n        /* \"#utility.yul\":2779:2780   */\n      0x00\n        /* \"#utility.yul\":2768:2777   */\n      dup4\n        /* \"#utility.yul\":2764:2781   */\n      add\n        /* \"#utility.yul\":2755:2761   */\n      dup5\n        /* \"#utility.yul\":2711:2782   */\n      tag_140\n      jump\t// in\n    tag_206:\n        /* \"#utility.yul\":2567:2789   */\n      swap3\n      swap2\n      pop\n      pop\n      jump\t// out\n        /* \"#utility.yul\":2795:2917   */\n    tag_141:\n        /* \"#utility.yul\":2868:2892   */\n      tag_208\n        /* \"#utility.yul\":2886:2891   */\n      dup2\n        /* \"#utility.yul\":2868:2892   */\n      tag_139\n      jump\t// in\n    tag_208:\n        /* \"#utility.yul\":2861:2866   */\n      dup2\n        /* \"#utility.yul\":2858:2893   */\n      eq\n        /* \"#utility.yul\":2848:2911   */\n      tag_209\n      jumpi\n        /* \"#utility.yul\":2907:2908   */\n      0x00\n        /* \"#utility.yul\":2904:2905   */\n      dup1\n        /* \"#utility.yul\":2897:2909   */\n      revert\n        /* \"#utility.yul\":2848:2911   */\n    tag_209:\n        /* \"#utility.yul\":2795:2917   */\n      pop\n      jump\t// out\n        /* \"#utility.yul\":2923:3062   */\n    tag_142:\n        /* \"#utility.yul\":2969:2974   */\n      0x00\n        /* \"#utility.yul\":3007:3013   */\n      dup2\n        /* \"#utility.yul\":2994:3014   */\n      calldataload\n        /* \"#utility.yul\":2985:3014   */\n      swap1\n      pop\n        /* \"#utility.yul\":3023:3056   */\n      tag_211\n        /* \"#utility.yul\":3050:3055   */\n      dup2\n        /* \"#utility.yul\":3023:3056   */\n      tag_141\n      jump\t// in\n    tag_211:\n        /* \"#utility.yul\":2923:3062   */\n      swap3\n      swap2\n      pop\n      pop\n      jump\t// out\n        /* \"#utility.yul\":3068:3542   */\n    tag_29:\n        /* \"#utility.yul\":3136:3142   */\n      0x00\n        /* \"#utility.yul\":3144:3150   */\n      dup1\n        /* \"#utility.yul\":3193:3195   */\n      0x40\n        /* \"#utility.yul\":3181:3190   */\n      dup4\n        /* \"#utility.yul\":3172:3179   */\n      dup6\n        /* \"#utility.yul\":3168:3191   */\n      sub\n        /* \"#utility.yul\":3164:3196   */\n      slt\n        /* \"#utility.yul\":3161:3280   */\n      iszero\n      tag_213\n      jumpi\n        /* \"#utility.yul\":3199:3278   */\n      tag_214\n      tag_128\n      jump\t// in\n    tag_214:\n        /* \"#utility.yul\":3161:3280   */\n    tag_213:\n        /* \"#utility.yul\":3319:3320   */\n      0x00\n        /* \"#utility.yul\":3344:3397   */\n      tag_215\n        /* \"#utility.yul\":3389:3396   */\n      dup6\n        /* \"#utility.yul\":3380:3386   */\n      dup3\n        /* \"#utility.yul\":3369:3378   */\n      dup7\n        /* \"#utility.yul\":3365:3387   */\n      add\n        /* \"#utility.yul\":3344:3397   */\n      tag_142\n      jump\t// in\n    tag_215:\n        /* \"#utility.yul\":3334:3397   */\n      swap3\n      pop\n        /* \"#utility.yul\":3290:3407   */\n      pop\n        /* \"#utility.yul\":3446:3448   */\n      0x20\n        /* \"#utility.yul\":3472:3525   */\n      tag_216\n        /* \"#utility.yul\":3517:3524   */\n      dup6\n        /* \"#utility.yul\":3508:3514   */\n      dup3\n        /* \"#utility.yul\":3497:3506   */\n      dup7\n        /* \"#utility.yul\":3493:3515   */\n      add\n        /* \"#utility.yul\":3472:3525   */\n      tag_137\n      jump\t// in\n    tag_216:\n        /* \"#utility.yul\":3462:3525   */\n      swap2\n      pop\n        /* \"#utility.yul\":3417:3535   */\n      pop\n        /* \"#utility.yul\":3068:3542   */\n      swap3\n      pop\n      swap3\n      swap1\n      pop\n      jump\t// out\n        /* \"#utility.yul\":3548:4167   */\n    tag_33:\n        /* \"#utility.yul\":3625:3631   */\n      0x00\n        /* \"#utility.yul\":3633:3639   */\n      dup1\n        /* \"#utility.yul\":3641:3647   */\n      0x00\n        /* \"#utility.yul\":3690:3692   */\n      0x60\n        /* \"#utility.yul\":3678:3687   */\n      dup5\n        /* \"#utility.yul\":3669:3676   */\n      dup7\n        /* \"#utility.yul\":3665:3688   */\n      sub\n        /* \"#utility.yul\":3661:3693   */\n      slt\n        /* \"#utility.yul\":3658:3777   */\n      iszero\n      tag_218\n      jumpi\n        /* \"#utility.yul\":3696:3775   */\n      tag_219\n      tag_128\n      jump\t// in\n    tag_219:\n        /* \"#utility.yul\":3658:3777   */\n    tag_218:\n        /* \"#utility.yul\":3816:3817   */\n      0x00\n        /* \"#utility.yul\":3841:3894   */\n      tag_220\n        /* \"#utility.yul\":3886:3893   */\n      dup7\n        /* \"#utility.yul\":3877:3883   */\n      dup3\n        /* \"#utility.yul\":3866:3875   */\n      dup8\n        /* \"#utility.yul\":3862:3884   */\n      add\n        /* \"#utility.yul\":3841:3894   */\n      tag_142\n      jump\t// in\n    tag_220:\n        /* \"#utility.yul\":3831:3894   */\n      swap4\n      pop\n        /* \"#utility.yul\":3787:3904   */\n      pop\n        /* \"#utility.yul\":3943:3945   */\n      0x20\n        /* \"#utility.yul\":3969:4022   */\n      tag_221\n        /* \"#utility.yul\":4014:4021   */\n      dup7\n        /* \"#utility.yul\":4005:4011   */\n      dup3\n        /* \"#utility.yul\":3994:4003   */\n      dup8\n        /* \"#utility.yul\":3990:4012   */\n      add\n        /* \"#utility.yul\":3969:4022   */\n      tag_142\n      jump\t// in\n    tag_221:\n        /* \"#utility.yul\":3959:4022   */\n      swap3\n      pop\n        /* \"#utility.yul\":3914:4032   */\n      pop\n        /* \"#utility.yul\":4071:4073   */\n      0x40\n        /* \"#utility.yul\":4097:4150   */\n      tag_222\n        /* \"#utility.yul\":4142:4149   */\n      dup7\n        /* \"#utility.yul\":4133:4139   */\n      dup3\n        /* \"#utility.yul\":4122:4131   */\n      dup8\n        /* \"#utility.yul\":4118:4140   */\n      add\n        /* \"#utility.yul\":4097:4150   */\n      tag_137\n      jump\t// in\n    tag_222:\n        /* \"#utility.yul\":4087:4150   */\n      swap2\n      pop\n        /* \"#utility.yul\":4042:4160   */\n      pop\n        /* \"#utility.yul\":3548:4167   */\n      swap3\n      pop\n      swap3\n      pop\n      swap3\n      jump\t// out\n        /* \"#utility.yul\":4173:4502   */\n    tag_48:\n        /* \"#utility.yul\":4232:4238   */\n      0x00\n        /* \"#utility.yul\":4281:4283   */\n      0x20\n        /* \"#utility.yul\":4269:4278   */\n      dup3\n        /* \"#utility.yul\":4260:4267   */\n      dup5\n        /* \"#utility.yul\":4256:4279   */\n      sub\n        /* \"#utility.yul\":4252:4284   */\n      slt\n        /* \"#utility.yul\":4249:4368   */\n      iszero\n      tag_224\n      jumpi\n        /* \"#utility.yul\":4287:4366   */\n      tag_225\n      tag_128\n      jump\t// in\n    tag_225:\n        /* \"#utility.yul\":4249:4368   */\n    tag_224:\n        /* \"#utility.yul\":4407:4408   */\n      0x00\n        /* \"#utility.yul\":4432:4485   */\n      tag_226\n        /* \"#utility.yul\":4477:4484   */\n      dup5\n        /* \"#utility.yul\":4468:4474   */\n      dup3\n        /* \"#utility.yul\":4457:4466   */\n      dup6\n        /* \"#utility.yul\":4453:4475   */\n      add\n        /* \"#utility.yul\":4432:4485   */\n      tag_142\n      jump\t// in\n    tag_226:\n        /* \"#utility.yul\":4422:4485   */\n      swap2\n      pop\n        /* \"#utility.yul\":4378:4495   */\n      pop\n        /* \"#utility.yul\":4173:4502   */\n      swap3\n      swap2\n      pop\n      pop\n      jump\t// out\n        /* \"#utility.yul\":4508:4626   */\n    tag_143:\n        /* \"#utility.yul\":4595:4619   */\n      tag_228\n        /* \"#utility.yul\":4613:4618   */\n      dup2\n        /* \"#utility.yul\":4595:4619   */\n      tag_135\n      jump\t// in\n    tag_228:\n        /* \"#utility.yul\":4590:4593   */\n      dup3\n        /* \"#utility.yul\":4583:4620   */\n      mstore\n        /* \"#utility.yul\":4508:4626   */\n      pop\n      pop\n      jump\t// out\n        /* \"#utility.yul\":4632:4854   */\n    tag_51:\n        /* \"#utility.yul\":4725:4729   */\n      0x00\n        /* \"#utility.yul\":4763:4765   */\n      0x20\n        /* \"#utility.yul\":4752:4761   */\n      dup3\n        /* \"#utility.yul\":4748:4766   */\n      add\n        /* \"#utility.yul\":4740:4766   */\n      swap1\n      pop\n        /* \"#utility.yul\":4776:4847   */\n      tag_230\n        /* \"#utility.yul\":4844:4845   */\n      0x00\n        /* \"#utility.yul\":4833:4842   */\n      dup4\n        /* \"#utility.yul\":4829:4846   */\n      add\n        /* \"#utility.yul\":4820:4826   */\n      dup5\n        /* \"#utility.yul\":4776:4847   */\n      tag_143\n      jump\t// in\n    tag_230:\n        /* \"#utility.yul\":4632:4854   */\n      swap3\n      swap2\n      pop\n      pop\n      jump\t// out\n        /* \"#utility.yul\":4860:4976   */\n    tag_144:\n        /* \"#utility.yul\":4930:4951   */\n      tag_232\n        /* \"#utility.yul\":4945:4950   */\n      dup2\n        /* \"#utility.yul\":4930:4951   */\n      tag_133\n      jump\t// in\n    tag_232:\n        /* \"#utility.yul\":4923:4928   */\n      dup2\n        /* \"#utility.yul\":4920:4952   */\n      eq\n        /* \"#utility.yul\":4910:4970   */\n      tag_233\n      jumpi\n        /* \"#utility.yul\":4966:4967   */\n      0x00\n        /* \"#utility.yul\":4963:4964   */\n      dup1\n        /* \"#utility.yul\":4956:4968   */\n      revert\n        /* \"#utility.yul\":4910:4970   */\n    tag_233:\n        /* \"#utility.yul\":4860:4976   */\n      pop\n      jump\t// out\n        /* \"#utility.yul\":4982:5115   */\n    tag_145:\n        /* \"#utility.yul\":5025:5030   */\n      0x00\n        /* \"#utility.yul\":5063:5069   */\n      dup2\n        /* \"#utility.yul\":5050:5070   */\n      calldataload\n        /* \"#utility.yul\":5041:5070   */\n      swap1\n      pop\n        /* \"#utility.yul\":5079:5109   */\n      tag_235\n        /* \"#utility.yul\":5103:5108   */\n      dup2\n        /* \"#utility.yul\":5079:5109   */\n      tag_144\n      jump\t// in\n    tag_235:\n        /* \"#utility.yul\":4982:5115   */\n      swap3\n      swap2\n      pop\n      pop\n      jump\t// out\n        /* \"#utility.yul\":5121:5589   */\n    tag_54:\n        /* \"#utility.yul\":5186:5192   */\n      0x00\n        /* \"#utility.yul\":5194:5200   */\n      dup1\n        /* \"#utility.yul\":5243:5245   */\n      0x40\n        /* \"#utility.yul\":5231:5240   */\n      dup4\n        /* \"#utility.yul\":5222:5229   */\n      dup6\n        /* \"#utility.yul\":5218:5241   */\n      sub\n        /* \"#utility.yul\":5214:5246   */\n      slt\n        /* \"#utility.yul\":5211:5330   */\n      iszero\n      tag_237\n      jumpi\n        /* \"#utility.yul\":5249:5328   */\n      tag_238\n      tag_128\n      jump\t// in\n    tag_238:\n        /* \"#utility.yul\":5211:5330   */\n    tag_237:\n        /* \"#utility.yul\":5369:5370   */\n      0x00\n        /* \"#utility.yul\":5394:5447   */\n      tag_239\n        /* \"#utility.yul\":5439:5446   */\n      dup6\n        /* \"#utility.yul\":5430:5436   */\n      dup3\n        /* \"#utility.yul\":5419:5428   */\n      dup7\n        /* \"#utility.yul\":5415:5437   */\n      add\n        /* \"#utility.yul\":5394:5447   */\n      tag_142\n      jump\t// in\n    tag_239:\n        /* \"#utility.yul\":5384:5447   */\n      swap3\n      pop\n        /* \"#utility.yul\":5340:5457   */\n      pop\n        /* \"#utility.yul\":5496:5498   */\n      0x20\n        /* \"#utility.yul\":5522:5572   */\n      tag_240\n        /* \"#utility.yul\":5564:5571   */\n      dup6\n        /* \"#utility.yul\":5555:5561   */\n      dup3\n        /* \"#utility.yul\":5544:5553   */\n      dup7\n        /* \"#utility.yul\":5540:5562   */\n      add\n        /* \"#utility.yul\":5522:5572   */\n      tag_145\n      jump\t// in\n    tag_240:\n        /* \"#utility.yul\":5512:5572   */\n      swap2\n      pop\n        /* \"#utility.yul\":5467:5582   */\n      pop\n        /* \"#utility.yul\":5121:5589   */\n      swap3\n      pop\n      swap3\n      swap1\n      pop\n      jump\t// out\n        /* \"#utility.yul\":5595:5712   */\n    tag_146:\n        /* \"#utility.yul\":5704:5705   */\n      0x00\n        /* \"#utility.yul\":5701:5702   */\n      dup1\n        /* \"#utility.yul\":5694:5706   */\n      revert\n        /* \"#utility.yul\":5718:5835   */\n    tag_147:\n        /* \"#utility.yul\":5827:5828   */\n      0x00\n        /* \"#utility.yul\":5824:5825   */\n      dup1\n        /* \"#utility.yul\":5817:5829   */\n      revert\n        /* \"#utility.yul\":5841:5958   */\n    tag_148:\n        /* \"#utility.yul\":5950:5951   */\n      0x00\n        /* \"#utility.yul\":5947:5948   */\n      dup1\n        /* \"#utility.yul\":5940:5952   */\n      revert\n        /* \"#utility.yul\":5977:6529   */\n    tag_149:\n        /* \"#utility.yul\":6034:6042   */\n      0x00\n        /* \"#utility.yul\":6044:6050   */\n      dup1\n        /* \"#utility.yul\":6094:6097   */\n      dup4\n        /* \"#utility.yul\":6087:6091   */\n      0x1f\n        /* \"#utility.yul\":6079:6085   */\n      dup5\n        /* \"#utility.yul\":6075:6092   */\n      add\n        /* \"#utility.yul\":6071:6098   */\n      slt\n        /* \"#utility.yul\":6061:6183   */\n      tag_245\n      jumpi\n        /* \"#utility.yul\":6102:6181   */\n      tag_246\n      tag_146\n      jump\t// in\n    tag_246:\n        /* \"#utility.yul\":6061:6183   */\n    tag_245:\n        /* \"#utility.yul\":6215:6221   */\n      dup3\n        /* \"#utility.yul\":6202:6222   */\n      calldataload\n        /* \"#utility.yul\":6192:6222   */\n      swap1\n      pop\n        /* \"#utility.yul\":6245:6263   */\n      0xffffffffffffffff\n        /* \"#utility.yul\":6237:6243   */\n      dup2\n        /* \"#utility.yul\":6234:6264   */\n      gt\n        /* \"#utility.yul\":6231:6348   */\n      iszero\n      tag_247\n      jumpi\n        /* \"#utility.yul\":6267:6346   */\n      tag_248\n      tag_147\n      jump\t// in\n    tag_248:\n        /* \"#utility.yul\":6231:6348   */\n    tag_247:\n        /* \"#utility.yul\":6381:6385   */\n      0x20\n        /* \"#utility.yul\":6373:6379   */\n      dup4\n        /* \"#utility.yul\":6369:6386   */\n      add\n        /* \"#utility.yul\":6357:6386   */\n      swap2\n      pop\n        /* \"#utility.yul\":6435:6438   */\n      dup4\n        /* \"#utility.yul\":6427:6431   */\n      0x01\n        /* \"#utility.yul\":6419:6425   */\n      dup3\n        /* \"#utility.yul\":6415:6432   */\n      mul\n        /* \"#utility.yul\":6405:6413   */\n      dup4\n        /* \"#utility.yul\":6401:6433   */\n      add\n        /* \"#utility.yul\":6398:6439   */\n      gt\n        /* \"#utility.yul\":6395:6523   */\n      iszero\n      tag_249\n      jumpi\n        /* \"#utility.yul\":6442:6521   */\n      tag_250\n      tag_148\n      jump\t// in\n    tag_250:\n        /* \"#utility.yul\":6395:6523   */\n    tag_249:\n        /* \"#utility.yul\":5977:6529   */\n      swap3\n      pop\n      swap3\n      swap1\n      pop\n      jump\t// out\n        /* \"#utility.yul\":6535:7498   */\n    tag_58:\n        /* \"#utility.yul\":6632:6638   */\n      0x00\n        /* \"#utility.yul\":6640:6646   */\n      dup1\n        /* \"#utility.yul\":6648:6654   */\n      0x00\n        /* \"#utility.yul\":6656:6662   */\n      dup1\n        /* \"#utility.yul\":6664:6670   */\n      0x00\n        /* \"#utility.yul\":6713:6716   */\n      0x80\n        /* \"#utility.yul\":6701:6710   */\n      dup7\n        /* \"#utility.yul\":6692:6699   */\n      dup9\n        /* \"#utility.yul\":6688:6711   */\n      sub\n        /* \"#utility.yul\":6684:6717   */\n      slt\n        /* \"#utility.yul\":6681:6801   */\n      iszero\n      tag_252\n      jumpi\n        /* \"#utility.yul\":6720:6799   */\n      tag_253\n      tag_128\n      jump\t// in\n    tag_253:\n        /* \"#utility.yul\":6681:6801   */\n    tag_252:\n        /* \"#utility.yul\":6840:6841   */\n      0x00\n        /* \"#utility.yul\":6865:6918   */\n      tag_254\n        /* \"#utility.yul\":6910:6917   */\n      dup9\n        /* \"#utility.yul\":6901:6907   */\n      dup3\n        /* \"#utility.yul\":6890:6899   */\n      dup10\n        /* \"#utility.yul\":6886:6908   */\n      add\n        /* \"#utility.yul\":6865:6918   */\n      tag_142\n      jump\t// in\n    tag_254:\n        /* \"#utility.yul\":6855:6918   */\n      swap6\n      pop\n        /* \"#utility.yul\":6811:6928   */\n      pop\n        /* \"#utility.yul\":6967:6969   */\n      0x20\n        /* \"#utility.yul\":6993:7046   */\n      tag_255\n        /* \"#utility.yul\":7038:7045   */\n      dup9\n        /* \"#utility.yul\":7029:7035   */\n      dup3\n        /* \"#utility.yul\":7018:7027   */\n      dup10\n        /* \"#utility.yul\":7014:7036   */\n      add\n        /* \"#utility.yul\":6993:7046   */\n      tag_142\n      jump\t// in\n    tag_255:\n        /* \"#utility.yul\":6983:7046   */\n      swap5\n      pop\n        /* \"#utility.yul\":6938:7056   */\n      pop\n        /* \"#utility.yul\":7095:7097   */\n      0x40\n        /* \"#utility.yul\":7121:7174   */\n      tag_256\n        /* \"#utility.yul\":7166:7173   */\n      dup9\n        /* \"#utility.yul\":7157:7163   */\n      dup3\n        /* \"#utility.yul\":7146:7155   */\n      dup10\n        /* \"#utility.yul\":7142:7164   */\n      add\n        /* \"#utility.yul\":7121:7174   */\n      tag_137\n      jump\t// in\n    tag_256:\n        /* \"#utility.yul\":7111:7174   */\n      swap4\n      pop\n        /* \"#utility.yul\":7066:7184   */\n      pop\n        /* \"#utility.yul\":7251:7253   */\n      0x60\n        /* \"#utility.yul\":7240:7249   */\n      dup7\n        /* \"#utility.yul\":7236:7254   */\n      add\n        /* \"#utility.yul\":7223:7255   */\n      calldataload\n        /* \"#utility.yul\":7282:7300   */\n      0xffffffffffffffff\n        /* \"#utility.yul\":7274:7280   */\n      dup2\n        /* \"#utility.yul\":7271:7301   */\n      gt\n        /* \"#utility.yul\":7268:7385   */\n      iszero\n      tag_257\n      jumpi\n        /* \"#utility.yul\":7304:7383   */\n      tag_258\n      tag_129\n      jump\t// in\n    tag_258:\n        /* \"#utility.yul\":7268:7385   */\n    tag_257:\n        /* \"#utility.yul\":7417:7481   */\n      tag_259\n        /* \"#utility.yul\":7473:7480   */\n      dup9\n        /* \"#utility.yul\":7464:7470   */\n      dup3\n        /* \"#utility.yul\":7453:7462   */\n      dup10\n        /* \"#utility.yul\":7449:7471   */\n      add\n        /* \"#utility.yul\":7417:7481   */\n      tag_149\n      jump\t// in\n    tag_259:\n        /* \"#utility.yul\":7399:7481   */\n      swap3\n      pop\n      swap3\n      pop\n        /* \"#utility.yul\":7194:7491   */\n      pop\n        /* \"#utility.yul\":6535:7498   */\n      swap3\n      swap6\n      pop\n      swap3\n      swap6\n      swap1\n      swap4\n      pop\n      jump\t// out\n        /* \"#utility.yul\":7504:7978   */\n    tag_62:\n        /* \"#utility.yul\":7572:7578   */\n      0x00\n        /* \"#utility.yul\":7580:7586   */\n      dup1\n        /* \"#utility.yul\":7629:7631   */\n      0x40\n        /* \"#utility.yul\":7617:7626   */\n      dup4\n        /* \"#utility.yul\":7608:7615   */\n      dup6\n        /* \"#utility.yul\":7604:7627   */\n      sub\n        /* \"#utility.yul\":7600:7632   */\n      slt\n        /* \"#utility.yul\":7597:7716   */\n      iszero\n      tag_261\n      jumpi\n        /* \"#utility.yul\":7635:7714   */\n      tag_262\n      tag_128\n      jump\t// in\n    tag_262:\n        /* \"#utility.yul\":7597:7716   */\n    tag_261:\n        /* \"#utility.yul\":7755:7756   */\n      0x00\n        /* \"#utility.yul\":7780:7833   */\n      tag_263\n        /* \"#utility.yul\":7825:7832   */\n      dup6\n        /* \"#utility.yul\":7816:7822   */\n      dup3\n        /* \"#utility.yul\":7805:7814   */\n      dup7\n        /* \"#utility.yul\":7801:7823   */\n      add\n        /* \"#utility.yul\":7780:7833   */\n      tag_142\n      jump\t// in\n    tag_263:\n        /* \"#utility.yul\":7770:7833   */\n      swap3\n      pop\n        /* \"#utility.yul\":7726:7843   */\n      pop\n        /* \"#utility.yul\":7882:7884   */\n      0x20\n        /* \"#utility.yul\":7908:7961   */\n      tag_264\n        /* \"#utility.yul\":7953:7960   */\n      dup6\n        /* \"#utility.yul\":7944:7950   */\n      dup3\n        /* \"#utility.yul\":7933:7942   */\n      dup7\n        /* \"#utility.yul\":7929:7951   */\n      add\n        /* \"#utility.yul\":7908:7961   */\n      tag_142\n      jump\t// in\n    tag_264:\n        /* \"#utility.yul\":7898:7961   */\n      swap2\n      pop\n        /* \"#utility.yul\":7853:7971   */\n      pop\n        /* \"#utility.yul\":7504:7978   */\n      swap3\n      pop\n      swap3\n      swap1\n      pop\n      jump\t// out\n        /* \"#utility.yul\":7984:8153   */\n    tag_150:\n        /* \"#utility.yul\":8068:8079   */\n      0x00\n        /* \"#utility.yul\":8102:8108   */\n      dup3\n        /* \"#utility.yul\":8097:8100   */\n      dup3\n        /* \"#utility.yul\":8090:8109   */\n      mstore\n        /* \"#utility.yul\":8142:8146   */\n      0x20\n        /* \"#utility.yul\":8137:8140   */\n      dup3\n        /* \"#utility.yul\":8133:8147   */\n      add\n        /* \"#utility.yul\":8118:8147   */\n      swap1\n      pop\n        /* \"#utility.yul\":7984:8153   */\n      swap3\n      swap2\n      pop\n      pop\n      jump\t// out\n        /* \"#utility.yul\":8159:8328   */\n    tag_151:\n        /* \"#utility.yul\":8299:8320   */\n      0x746f6b656e20646f65736e277420657869737400000000000000000000000000\n        /* \"#utility.yul\":8295:8296   */\n      0x00\n        /* \"#utility.yul\":8287:8293   */\n      dup3\n        /* \"#utility.yul\":8283:8297   */\n      add\n        /* \"#utility.yul\":8276:8321   */\n      mstore\n        /* \"#utility.yul\":8159:8328   */\n      pop\n      jump\t// out\n        /* \"#utility.yul\":8334:8700   */\n    tag_152:\n        /* \"#utility.yul\":8476:8479   */\n      0x00\n        /* \"#utility.yul\":8497:8564   */\n      tag_268\n        /* \"#utility.yul\":8561:8563   */\n      0x13\n        /* \"#utility.yul\":8556:8559   */\n      dup4\n        /* \"#utility.yul\":8497:8564   */\n      tag_150\n      jump\t// in\n    tag_268:\n        /* \"#utility.yul\":8490:8564   */\n      swap2\n      pop\n        /* \"#utility.yul\":8573:8666   */\n      tag_269\n        /* \"#utility.yul\":8662:8665   */\n      dup3\n        /* \"#utility.yul\":8573:8666   */\n      tag_151\n      jump\t// in\n    tag_269:\n        /* \"#utility.yul\":8691:8693   */\n      0x20\n        /* \"#utility.yul\":8686:8689   */\n      dup3\n        /* \"#utility.yul\":8682:8694   */\n      add\n        /* \"#utility.yul\":8675:8694   */\n      swap1\n      pop\n        /* \"#utility.yul\":8334:8700   */\n      swap2\n      swap1\n      pop\n      jump\t// out\n        /* \"#utility.yul\":8706:9125   */\n    tag_70:\n        /* \"#utility.yul\":8872:8876   */\n      0x00\n        /* \"#utility.yul\":8910:8912   */\n      0x20\n        /* \"#utility.yul\":8899:8908   */\n      dup3\n        /* \"#utility.yul\":8895:8913   */\n      add\n        /* \"#utility.yul\":8887:8913   */\n      swap1\n      pop\n        /* \"#utility.yul\":8959:8968   */\n      dup2\n        /* \"#utility.yul\":8953:8957   */\n      dup2\n        /* \"#utility.yul\":8949:8969   */\n      sub\n        /* \"#utility.yul\":8945:8946   */\n      0x00\n        /* \"#utility.yul\":8934:8943   */\n      dup4\n        /* \"#utility.yul\":8930:8947   */\n      add\n        /* \"#utility.yul\":8923:8970   */\n      mstore\n        /* \"#utility.yul\":8987:9118   */\n      tag_271\n        /* \"#utility.yul\":9113:9117   */\n      dup2\n        /* \"#utility.yul\":8987:9118   */\n      tag_152\n      jump\t// in\n    tag_271:\n        /* \"#utility.yul\":8979:9118   */\n      swap1\n      pop\n        /* \"#utility.yul\":8706:9125   */\n      swap2\n      swap1\n      pop\n      jump\t// out\n        /* \"#utility.yul\":9131:9295   */\n    tag_153:\n        /* \"#utility.yul\":9271:9287   */\n      0x6e6f7420617574686f72697a6564000000000000000000000000000000000000\n        /* \"#utility.yul\":9267:9268   */\n      0x00\n        /* \"#utility.yul\":9259:9265   */\n      dup3\n        /* \"#utility.yul\":9255:9269   */\n      add\n        /* \"#utility.yul\":9248:9288   */\n      mstore\n        /* \"#utility.yul\":9131:9295   */\n      pop\n      jump\t// out\n        /* \"#utility.yul\":9301:9667   */\n    tag_154:\n        /* \"#utility.yul\":9443:9446   */\n      0x00\n        /* \"#utility.yul\":9464:9531   */\n      tag_274\n        /* \"#utility.yul\":9528:9530   */\n      0x0e\n        /* \"#utility.yul\":9523:9526   */\n      dup4\n        /* \"#utility.yul\":9464:9531   */\n      tag_150\n      jump\t// in\n    tag_274:\n        /* \"#utility.yul\":9457:9531   */\n      swap2\n      pop\n        /* \"#utility.yul\":9540:9633   */\n      tag_275\n        /* \"#utility.yul\":9629:9632   */\n      dup3\n        /* \"#utility.yul\":9540:9633   */\n      tag_153\n      jump\t// in\n    tag_275:\n        /* \"#utility.yul\":9658:9660   */\n      0x20\n        /* \"#utility.yul\":9653:9656   */\n      dup3\n        /* \"#utility.yul\":9649:9661   */\n      add\n        /* \"#utility.yul\":9642:9661   */\n      swap1\n      pop\n        /* \"#utility.yul\":9301:9667   */\n      swap2\n      swap1\n      pop\n      jump\t// out\n        /* \"#utility.yul\":9673:10092   */\n    tag_75:\n        /* \"#utility.yul\":9839:9843   */\n      0x00\n        /* \"#utility.yul\":9877:9879   */\n      0x20\n        /* \"#utility.yul\":9866:9875   */\n      dup3\n        /* \"#utility.yul\":9862:9880   */\n      add\n        /* \"#utility.yul\":9854:9880   */\n      swap1\n      pop\n        /* \"#utility.yul\":9926:9935   */\n      dup2\n        /* \"#utility.yul\":9920:9924   */\n      dup2\n        /* \"#utility.yul\":9916:9936   */\n      sub\n        /* \"#utility.yul\":9912:9913   */\n      0x00\n        /* \"#utility.yul\":9901:9910   */\n      dup4\n        /* \"#utility.yul\":9897:9914   */\n      add\n        /* \"#utility.yul\":9890:9937   */\n      mstore\n        /* \"#utility.yul\":9954:10085   */\n      tag_277\n        /* \"#utility.yul\":10080:10084   */\n      dup2\n        /* \"#utility.yul\":9954:10085   */\n      tag_154\n      jump\t// in\n    tag_277:\n        /* \"#utility.yul\":9946:10085   */\n      swap1\n      pop\n        /* \"#utility.yul\":9673:10092   */\n      swap2\n      swap1\n      pop\n      jump\t// out\n        /* \"#utility.yul\":10098:10261   */\n    tag_155:\n        /* \"#utility.yul\":10238:10253   */\n      0x66726f6d20213d206f776e657200000000000000000000000000000000000000\n        /* \"#utility.yul\":10234:10235   */\n      0x00\n        /* \"#utility.yul\":10226:10232   */\n      dup3\n        /* \"#utility.yul\":10222:10236   */\n      add\n        /* \"#utility.yul\":10215:10254   */\n      mstore\n        /* \"#utility.yul\":10098:10261   */\n      pop\n      jump\t// out\n        /* \"#utility.yul\":10267:10633   */\n    tag_156:\n        /* \"#utility.yul\":10409:10412   */\n      0x00\n        /* \"#utility.yul\":10430:10497   */\n      tag_280\n        /* \"#utility.yul\":10494:10496   */\n      0x0d\n        /* \"#utility.yul\":10489:10492   */\n      dup4\n        /* \"#utility.yul\":10430:10497   */\n      tag_150\n      jump\t// in\n    tag_280:\n        /* \"#utility.yul\":10423:10497   */\n      swap2\n      pop\n        /* \"#utility.yul\":10506:10599   */\n      tag_281\n        /* \"#utility.yul\":10595:10598   */\n      dup3\n        /* \"#utility.yul\":10506:10599   */\n      tag_155\n      jump\t// in\n    tag_281:\n        /* \"#utility.yul\":10624:10626   */\n      0x20\n        /* \"#utility.yul\":10619:10622   */\n      dup3\n        /* \"#utility.yul\":10615:10627   */\n      add\n        /* \"#utility.yul\":10608:10627   */\n      swap1\n      pop\n        /* \"#utility.yul\":10267:10633   */\n      swap2\n      swap1\n      pop\n      jump\t// out\n        /* \"#utility.yul\":10639:11058   */\n    tag_79:\n        /* \"#utility.yul\":10805:10809   */\n      0x00\n        /* \"#utility.yul\":10843:10845   */\n      0x20\n        /* \"#utility.yul\":10832:10841   */\n      dup3\n        /* \"#utility.yul\":10828:10846   */\n      add\n        /* \"#utility.yul\":10820:10846   */\n      swap1\n      pop\n        /* \"#utility.yul\":10892:10901   */\n      dup2\n        /* \"#utility.yul\":10886:10890   */\n      dup2\n        /* \"#utility.yul\":10882:10902   */\n      sub\n        /* \"#utility.yul\":10878:10879   */\n      0x00\n        /* \"#utility.yul\":10867:10876   */\n      dup4\n        /* \"#utility.yul\":10863:10880   */\n      add\n        /* \"#utility.yul\":10856:10903   */\n      mstore\n        /* \"#utility.yul\":10920:11051   */\n      tag_283\n        /* \"#utility.yul\":11046:11050   */\n      dup2\n        /* \"#utility.yul\":10920:11051   */\n      tag_156\n      jump\t// in\n    tag_283:\n        /* \"#utility.yul\":10912:11051   */\n      swap1\n      pop\n        /* \"#utility.yul\":10639:11058   */\n      swap2\n      swap1\n      pop\n      jump\t// out\n        /* \"#utility.yul\":11064:11238   */\n    tag_157:\n        /* \"#utility.yul\":11204:11230   */\n      0x7472616e7366657220746f207a65726f20616464726573730000000000000000\n        /* \"#utility.yul\":11200:11201   */\n      0x00\n        /* \"#utility.yul\":11192:11198   */\n      dup3\n        /* \"#utility.yul\":11188:11202   */\n      add\n        /* \"#utility.yul\":11181:11231   */\n      mstore\n        /* \"#utility.yul\":11064:11238   */\n      pop\n      jump\t// out\n        /* \"#utility.yul\":11244:11610   */\n    tag_158:\n        /* \"#utility.yul\":11386:11389   */\n      0x00\n        /* \"#utility.yul\":11407:11474   */\n      tag_286\n        /* \"#utility.yul\":11471:11473   */\n      0x18\n        /* \"#utility.yul\":11466:11469   */\n      dup4\n        /* \"#utility.yul\":11407:11474   */\n      tag_150\n      jump\t// in\n    tag_286:\n        /* \"#utility.yul\":11400:11474   */\n      swap2\n      pop\n        /* \"#utility.yul\":11483:11576   */\n      tag_287\n        /* \"#utility.yul\":11572:11575   */\n      dup3\n        /* \"#utility.yul\":11483:11576   */\n      tag_157\n      jump\t// in\n    tag_287:\n        /* \"#utility.yul\":11601:11603   */\n      0x20\n        /* \"#utility.yul\":11596:11599   */\n      dup3\n        /* \"#utility.yul\":11592:11604   */\n      add\n        /* \"#utility.yul\":11585:11604   */\n      swap1\n      pop\n        /* \"#utility.yul\":11244:11610   */\n      swap2\n      swap1\n      pop\n      jump\t// out\n        /* \"#utility.yul\":11616:12035   */\n    tag_82:\n        /* \"#utility.yul\":11782:11786   */\n      0x00\n        /* \"#utility.yul\":11820:11822   */\n      0x20\n        /* \"#utility.yul\":11809:11818   */\n      dup3\n        /* \"#utility.yul\":11805:11823   */\n      add\n        /* \"#utility.yul\":11797:11823   */\n      swap1\n      pop\n        /* \"#utility.yul\":11869:11878   */\n      dup2\n        /* \"#utility.yul\":11863:11867   */\n      dup2\n        /* \"#utility.yul\":11859:11879   */\n      sub\n        /* \"#utility.yul\":11855:11856   */\n      0x00\n        /* \"#utility.yul\":11844:11853   */\n      dup4\n        /* \"#utility.yul\":11840:11857   */\n      add\n        /* \"#utility.yul\":11833:11880   */\n      mstore\n        /* \"#utility.yul\":11897:12028   */\n      tag_289\n        /* \"#utility.yul\":12023:12027   */\n      dup2\n        /* \"#utility.yul\":11897:12028   */\n      tag_158\n      jump\t// in\n    tag_289:\n        /* \"#utility.yul\":11889:12028   */\n      swap1\n      pop\n        /* \"#utility.yul\":11616:12035   */\n      swap2\n      swap1\n      pop\n      jump\t// out\n        /* \"#utility.yul\":12041:12221   */\n    tag_159:\n        /* \"#utility.yul\":12089:12166   */\n      0x4e487b7100000000000000000000000000000000000000000000000000000000\n        /* \"#utility.yul\":12086:12087   */\n      0x00\n        /* \"#utility.yul\":12079:12167   */\n      mstore\n        /* \"#utility.yul\":12186:12190   */\n      0x11\n        /* \"#utility.yul\":12183:12184   */\n      0x04\n        /* \"#utility.yul\":12176:12191   */\n      mstore\n        /* \"#utility.yul\":12210:12214   */\n      0x24\n        /* \"#utility.yul\":12207:12208   */\n      0x00\n        /* \"#utility.yul\":12200:12215   */\n      revert\n        /* \"#utility.yul\":12227:12398   */\n    tag_88:\n        /* \"#utility.yul\":12266:12269   */\n      0x00\n        /* \"#utility.yul\":12289:12313   */\n      tag_292\n        /* \"#utility.yul\":12307:12312   */\n      dup3\n        /* \"#utility.yul\":12289:12313   */\n      tag_135\n      jump\t// in\n    tag_292:\n        /* \"#utility.yul\":12280:12313   */\n      swap2\n      pop\n        /* \"#utility.yul\":12335:12339   */\n      0x00\n        /* \"#utility.yul\":12328:12333   */\n      dup3\n        /* \"#utility.yul\":12325:12340   */\n      sub\n        /* \"#utility.yul\":12322:12363   */\n      tag_293\n      jumpi\n        /* \"#utility.yul\":12343:12361   */\n      tag_294\n      tag_159\n      jump\t// in\n    tag_294:\n        /* \"#utility.yul\":12322:12363   */\n    tag_293:\n        /* \"#utility.yul\":12390:12391   */\n      0x01\n        /* \"#utility.yul\":12383:12388   */\n      dup3\n        /* \"#utility.yul\":12379:12392   */\n      sub\n        /* \"#utility.yul\":12372:12392   */\n      swap1\n      pop\n        /* \"#utility.yul\":12227:12398   */\n      swap2\n      swap1\n      pop\n      jump\t// out\n        /* \"#utility.yul\":12404:12637   */\n    tag_90:\n        /* \"#utility.yul\":12443:12446   */\n      0x00\n        /* \"#utility.yul\":12466:12490   */\n      tag_296\n        /* \"#utility.yul\":12484:12489   */\n      dup3\n        /* \"#utility.yul\":12466:12490   */\n      tag_135\n      jump\t// in\n    tag_296:\n        /* \"#utility.yul\":12457:12490   */\n      swap2\n      pop\n        /* \"#utility.yul\":12512:12578   */\n      0xffffffffffffffffffffffffffffffffffffffffffffffffffffffffffffffff\n        /* \"#utility.yul\":12505:12510   */\n      dup3\n        /* \"#utility.yul\":12502:12579   */\n      sub\n        /* \"#utility.yul\":12499:12602   */\n      tag_297\n      jumpi\n        /* \"#utility.yul\":12582:12600   */\n      tag_298\n      tag_159\n      jump\t// in\n    tag_298:\n        /* \"#utility.yul\":12499:12602   */\n    tag_297:\n        /* \"#utility.yul\":12629:12630   */\n      0x01\n        /* \"#utility.yul\":12622:12627   */\n      dup3\n        /* \"#utility.yul\":12618:12631   */\n      add\n        /* \"#utility.yul\":12611:12631   */\n      swap1\n      pop\n        /* \"#utility.yul\":12404:12637   */\n      swap2\n      swap1\n      pop\n      jump\t// out\n        /* \"#utility.yul\":12643:12811   */\n    tag_160:\n        /* \"#utility.yul\":12726:12737   */\n      0x00\n        /* \"#utility.yul\":12760:12766   */\n      dup3\n        /* \"#utility.yul\":12755:12758   */\n      dup3\n        /* \"#utility.yul\":12748:12767   */\n      mstore\n        /* \"#utility.yul\":12800:12804   */\n      0x20\n        /* \"#utility.yul\":12795:12798   */\n      dup3\n        /* \"#utility.yul\":12791:12805   */\n      add\n        /* \"#utility.yul\":12776:12805   */\n      swap1\n      pop\n        /* \"#utility.yul\":12643:12811   */\n      swap3\n      swap2\n      pop\n      pop\n      jump\t// out\n        /* \"#utility.yul\":12817:12931   */\n    tag_161:\n      pop\n      jump\t// out\n        /* \"#utility.yul\":12937:13299   */\n    tag_162:\n        /* \"#utility.yul\":13078:13081   */\n      0x00\n        /* \"#utility.yul\":13099:13164   */\n      tag_302\n        /* \"#utility.yul\":13162:13163   */\n      0x00\n        /* \"#utility.yul\":13157:13160   */\n      dup4\n        /* \"#utility.yul\":13099:13164   */\n      tag_160\n      jump\t// in\n    tag_302:\n        /* \"#utility.yul\":13092:13164   */\n      swap2\n      pop\n        /* \"#utility.yul\":13173:13266   */\n      tag_303\n        /* \"#utility.yul\":13262:13265   */\n      dup3\n        /* \"#utility.yul\":13173:13266   */\n      tag_161\n      jump\t// in\n    tag_303:\n        /* \"#utility.yul\":13291:13292   */\n      0x00\n        /* \"#utility.yul\":13286:13289   */\n      dup3\n        /* \"#utility.yul\":13282:13293   */\n      add\n        /* \"#utility.yul\":13275:13293   */\n      swap1\n      pop\n        /* \"#utility.yul\":12937:13299   */\n      swap2\n      swap1\n      pop\n      jump\t// out\n        /* \"#utility.yul\":13305:14053   */\n    tag_95:\n        /* \"#utility.yul\":13554:13558   */\n      0x00\n        /* \"#utility.yul\":13592:13595   */\n      0x80\n        /* \"#utility.yul\":13581:13590   */\n      dup3\n        /* \"#utility.yul\":13577:13596   */\n      add\n        /* \"#utility.yul\":13569:13596   */\n      swap1\n      pop\n        /* \"#utility.yul\":13606:13677   */\n      tag_305\n        /* \"#utility.yul\":13674:13675   */\n      0x00\n        /* \"#utility.yul\":13663:13672   */\n      dup4\n        /* \"#utility.yul\":13659:13676   */\n      add\n        /* \"#utility.yul\":13650:13656   */\n      dup7\n        /* \"#utility.yul\":13606:13677   */\n      tag_140\n      jump\t// in\n    tag_305:\n        /* \"#utility.yul\":13687:13759   */\n      tag_306\n        /* \"#utility.yul\":13755:13757   */\n      0x20\n        /* \"#utility.yul\":13744:13753   */\n      dup4\n        /* \"#utility.yul\":13740:13758   */\n      add\n        /* \"#utility.yul\":13731:13737   */\n      dup6\n        /* \"#utility.yul\":13687:13759   */\n      tag_140\n      jump\t// in\n    tag_306:\n        /* \"#utility.yul\":13769:13841   */\n      tag_307\n        /* \"#utility.yul\":13837:13839   */\n      0x40\n        /* \"#utility.yul\":13826:13835   */\n      dup4\n        /* \"#utility.yul\":13822:13840   */\n      add\n        /* \"#utility.yul\":13813:13819   */\n      dup5\n        /* \"#utility.yul\":13769:13841   */\n      tag_143\n      jump\t// in\n    tag_307:\n        /* \"#utility.yul\":13888:13897   */\n      dup2\n        /* \"#utility.yul\":13882:13886   */\n      dup2\n        /* \"#utility.yul\":13878:13898   */\n      sub\n        /* \"#utility.yul\":13873:13875   */\n      0x60\n        /* \"#utility.yul\":13862:13871   */\n      dup4\n        /* \"#utility.yul\":13858:13876   */\n      add\n        /* \"#utility.yul\":13851:13899   */\n      mstore\n        /* \"#utility.yul\":13916:14046   */\n      tag_308\n        /* \"#utility.yul\":14041:14045   */\n      dup2\n        /* \"#utility.yul\":13916:14046   */\n      tag_162\n      jump\t// in\n    tag_308:\n        /* \"#utility.yul\":13908:14046   */\n      swap1\n      pop\n        /* \"#utility.yul\":13305:14053   */\n      swap5\n      swap4\n      pop\n      pop\n      pop\n      pop\n      jump\t// out\n        /* \"#utility.yul\":14059:14200   */\n    tag_163:\n        /* \"#utility.yul\":14115:14120   */\n      0x00\n        /* \"#utility.yul\":14146:14152   */\n      dup2\n        /* \"#utility.yul\":14140:14153   */\n      mload\n        /* \"#utility.yul\":14131:14153   */\n      swap1\n      pop\n        /* \"#utility.yul\":14162:14194   */\n      tag_310\n        /* \"#utility.yul\":14188:14193   */\n      dup2\n        /* \"#utility.yul\":14162:14194   */\n      tag_131\n      jump\t// in\n    tag_310:\n        /* \"#utility.yul\":14059:14200   */\n      swap3\n      swap2\n      pop\n      pop\n      jump\t// out\n        /* \"#utility.yul\":14206:14555   */\n    tag_99:\n        /* \"#utility.yul\":14275:14281   */\n      0x00\n        /* \"#utility.yul\":14324:14326   */\n      0x20\n        /* \"#utility.yul\":14312:14321   */\n      dup3\n        /* \"#utility.yul\":14303:14310   */\n      dup5\n        /* \"#utility.yul\":14299:14322   */\n      sub\n        /* \"#utility.yul\":14295:14327   */\n      slt\n        /* \"#utility.yul\":14292:14411   */\n      iszero\n      tag_312\n      jumpi\n        /* \"#utility.yul\":14330:14409   */\n      tag_313\n      tag_128\n      jump\t// in\n    tag_313:\n        /* \"#utility.yul\":14292:14411   */\n    tag_312:\n        /* \"#utility.yul\":14450:14451   */\n      0x00\n        /* \"#utility.yul\":14475:14538   */\n      tag_314\n        /* \"#utility.yul\":14530:14537   */\n      dup5\n        /* \"#utility.yul\":14521:14527   */\n      dup3\n        /* \"#utility.yul\":14510:14519   */\n      dup6\n        /* \"#utility.yul\":14506:14528   */\n      add\n        /* \"#utility.yul\":14475:14538   */\n      tag_163\n      jump\t// in\n    tag_314:\n        /* \"#utility.yul\":14465:14538   */\n      swap2\n      pop\n        /* \"#utility.yul\":14421:14548   */\n      pop\n        /* \"#utility.yul\":14206:14555   */\n      swap3\n      swap2\n      pop\n      pop\n      jump\t// out\n        /* \"#utility.yul\":14561:14727   */\n    tag_164:\n        /* \"#utility.yul\":14701:14719   */\n      0x756e7361666520726563697069656e7400000000000000000000000000000000\n        /* \"#utility.yul\":14697:14698   */\n      0x00\n        /* \"#utility.yul\":14689:14695   */\n      dup3\n        /* \"#utility.yul\":14685:14699   */\n      add\n        /* \"#utility.yul\":14678:14720   */\n      mstore\n        /* \"#utility.yul\":14561:14727   */\n      pop\n      jump\t// out\n        /* \"#utility.yul\":14733:15099   */\n    tag_165:\n        /* \"#utility.yul\":14875:14878   */\n      0x00\n        /* \"#utility.yul\":14896:14963   */\n      tag_317\n        /* \"#utility.yul\":14960:14962   */\n      0x10\n        /* \"#utility.yul\":14955:14958   */\n      dup4\n        /* \"#utility.yul\":14896:14963   */\n      tag_150\n      jump\t// in\n    tag_317:\n        /* \"#utility.yul\":14889:14963   */\n      swap2\n      pop\n        /* \"#utility.yul\":14972:15065   */\n      tag_318\n        /* \"#utility.yul\":15061:15064   */\n      dup3\n        /* \"#utility.yul\":14972:15065   */\n      tag_164\n      jump\t// in\n    tag_318:\n        /* \"#utility.yul\":15090:15092   */\n      0x20\n        /* \"#utility.yul\":15085:15088   */\n      dup3\n        /* \"#utility.yul\":15081:15093   */\n      add\n        /* \"#utility.yul\":15074:15093   */\n      swap1\n      pop\n        /* \"#utility.yul\":14733:15099   */\n      swap2\n      swap1\n      pop\n      jump\t// out\n        /* \"#utility.yul\":15105:15524   */\n    tag_102:\n        /* \"#utility.yul\":15271:15275   */\n      0x00\n        /* \"#utility.yul\":15309:15311   */\n      0x20\n        /* \"#utility.yul\":15298:15307   */\n      dup3\n        /* \"#utility.yul\":15294:15312   */\n      add\n        /* \"#utility.yul\":15286:15312   */\n      swap1\n      pop\n        /* \"#utility.yul\":15358:15367   */\n      dup2\n        /* \"#utility.yul\":15352:15356   */\n      dup2\n        /* \"#utility.yul\":15348:15368   */\n      sub\n        /* \"#utility.yul\":15344:15345   */\n      0x00\n        /* \"#utility.yul\":15333:15342   */\n      dup4\n        /* \"#utility.yul\":15329:15346   */\n      add\n        /* \"#utility.yul\":15322:15369   */\n      mstore\n        /* \"#utility.yul\":15386:15517   */\n      tag_320\n        /* \"#utility.yul\":15512:15516   */\n      dup2\n        /* \"#utility.yul\":15386:15517   */\n      tag_165\n      jump\t// in\n    tag_320:\n        /* \"#utility.yul\":15378:15517   */\n      swap1\n      pop\n        /* \"#utility.yul\":15105:15524   */\n      swap2\n      swap1\n      pop\n      jump\t// out\n        /* \"#utility.yul\":15530:15700   */\n    tag_166:\n        /* \"#utility.yul\":15670:15692   */\n      0x6f776e6572203d207a65726f2061646472657373000000000000000000000000\n        /* \"#utility.yul\":15666:15667   */\n      0x00\n        /* \"#utility.yul\":15658:15664   */\n      dup3\n        /* \"#utility.yul\":15654:15668   */\n      add\n        /* \"#utility.yul\":15647:15693   */\n      mstore\n        /* \"#utility.yul\":15530:15700   */\n      pop\n      jump\t// out\n        /* \"#utility.yul\":15706:16072   */\n    tag_167:\n        /* \"#utility.yul\":15848:15851   */\n      0x00\n        /* \"#utility.yul\":15869:15936   */\n      tag_323\n        /* \"#utility.yul\":15933:15935   */\n      0x14\n        /* \"#utility.yul\":15928:15931   */\n      dup4\n        /* \"#utility.yul\":15869:15936   */\n      tag_150\n      jump\t// in\n    tag_323:\n        /* \"#utility.yul\":15862:15936   */\n      swap2\n      pop\n        /* \"#utility.yul\":15945:16038   */\n      tag_324\n        /* \"#utility.yul\":16034:16037   */\n      dup3\n        /* \"#utility.yul\":15945:16038   */\n      tag_166\n      jump\t// in\n    tag_324:\n        /* \"#utility.yul\":16063:16065   */\n      0x20\n        /* \"#utility.yul\":16058:16061   */\n      dup3\n        /* \"#utility.yul\":16054:16066   */\n      add\n        /* \"#utility.yul\":16047:16066   */\n      swap1\n      pop\n        /* \"#utility.yul\":15706:16072   */\n      swap2\n      swap1\n      pop\n      jump\t// out\n        /* \"#utility.yul\":16078:16497   */\n    tag_111:\n        /* \"#utility.yul\":16244:16248   */\n      0x00\n        /* \"#utility.yul\":16282:16284   */\n      0x20\n        /* \"#utility.yul\":16271:16280   */\n      dup3\n        /* \"#utility.yul\":16267:16285   */\n      add\n        /* \"#utility.yul\":16259:16285   */\n      swap1\n      pop\n        /* \"#utility.yul\":16331:16340   */\n      dup2\n        /* \"#utility.yul\":16325:16329   */\n      dup2\n        /* \"#utility.yul\":16321:16341   */\n      sub\n        /* \"#utility.yul\":16317:16318   */\n      0x00\n        /* \"#utility.yul\":16306:16315   */\n      dup4\n        /* \"#utility.yul\":16302:16319   */\n      add\n        /* \"#utility.yul\":16295:16342   */\n      mstore\n        /* \"#utility.yul\":16359:16490   */\n      tag_326\n        /* \"#utility.yul\":16485:16489   */\n      dup2\n        /* \"#utility.yul\":16359:16490   */\n      tag_167\n      jump\t// in\n    tag_326:\n        /* \"#utility.yul\":16351:16490   */\n      swap1\n      pop\n        /* \"#utility.yul\":16078:16497   */\n      swap2\n      swap1\n      pop\n      jump\t// out\n        /* \"#utility.yul\":16503:16649   */\n    tag_168:\n        /* \"#utility.yul\":16600:16606   */\n      dup3\n        /* \"#utility.yul\":16595:16598   */\n      dup2\n        /* \"#utility.yul\":16590:16593   */\n      dup4\n        /* \"#utility.yul\":16577:16607   */\n      calldatacopy\n        /* \"#utility.yul\":16641:16642   */\n      0x00\n        /* \"#utility.yul\":16632:16638   */\n      dup4\n        /* \"#utility.yul\":16627:16630   */\n      dup4\n        /* \"#utility.yul\":16623:16639   */\n      add\n        /* \"#utility.yul\":16616:16643   */\n      mstore\n        /* \"#utility.yul\":16503:16649   */\n      pop\n      pop\n      pop\n      jump\t// out\n        /* \"#utility.yul\":16655:16757   */\n    tag_169:\n        /* \"#utility.yul\":16696:16702   */\n      0x00\n        /* \"#utility.yul\":16747:16749   */\n      0x1f\n        /* \"#utility.yul\":16743:16750   */\n      not\n        /* \"#utility.yul\":16738:16740   */\n      0x1f\n        /* \"#utility.yul\":16731:16736   */\n      dup4\n        /* \"#utility.yul\":16727:16741   */\n      add\n        /* \"#utility.yul\":16723:16751   */\n      and\n        /* \"#utility.yul\":16713:16751   */\n      swap1\n      pop\n        /* \"#utility.yul\":16655:16757   */\n      swap2\n      swap1\n      pop\n      jump\t// out\n        /* \"#utility.yul\":16785:17099   */\n    tag_170:\n        /* \"#utility.yul\":16881:16884   */\n      0x00\n        /* \"#utility.yul\":16902:16972   */\n      tag_330\n        /* \"#utility.yul\":16965:16971   */\n      dup4\n        /* \"#utility.yul\":16960:16963   */\n      dup6\n        /* \"#utility.yul\":16902:16972   */\n      tag_160\n      jump\t// in\n    tag_330:\n        /* \"#utility.yul\":16895:16972   */\n      swap4\n      pop\n        /* \"#utility.yul\":16982:17038   */\n      tag_331\n        /* \"#utility.yul\":17031:17037   */\n      dup4\n        /* \"#utility.yul\":17026:17029   */\n      dup6\n        /* \"#utility.yul\":17019:17024   */\n      dup5\n        /* \"#utility.yul\":16982:17038   */\n      tag_168\n      jump\t// in\n    tag_331:\n        /* \"#utility.yul\":17063:17092   */\n      tag_332\n        /* \"#utility.yul\":17085:17091   */\n      dup4\n        /* \"#utility.yul\":17063:17092   */\n      tag_169\n      jump\t// in\n    tag_332:\n        /* \"#utility.yul\":17058:17061   */\n      dup5\n        /* \"#utility.yul\":17054:17093   */\n      add\n        /* \"#utility.yul\":17047:17093   */\n      swap1\n      pop\n        /* \"#utility.yul\":16785:17099   */\n      swap4\n      swap3\n      pop\n      pop\n      pop\n      jump\t// out\n        /* \"#utility.yul\":17105:17765   */\n    tag_118:\n        /* \"#utility.yul\":17310:17314   */\n      0x00\n        /* \"#utility.yul\":17348:17351   */\n      0x80\n        /* \"#utility.yul\":17337:17346   */\n      dup3\n        /* \"#utility.yul\":17333:17352   */\n      add\n        /* \"#utility.yul\":17325:17352   */\n      swap1\n      pop\n        /* \"#utility.yul\":17362:17433   */\n      tag_334\n        /* \"#utility.yul\":17430:17431   */\n      0x00\n        /* \"#utility.yul\":17419:17428   */\n      dup4\n        /* \"#utility.yul\":17415:17432   */\n      add\n        /* \"#utility.yul\":17406:17412   */\n      dup9\n        /* \"#utility.yul\":17362:17433   */\n      tag_140\n      jump\t// in\n    tag_334:\n        /* \"#utility.yul\":17443:17515   */\n      tag_335\n        /* \"#utility.yul\":17511:17513   */\n      0x20\n        /* \"#utility.yul\":17500:17509   */\n      dup4\n        /* \"#utility.yul\":17496:17514   */\n      add\n        /* \"#utility.yul\":17487:17493   */\n      dup8\n        /* \"#utility.yul\":17443:17515   */\n      tag_140\n      jump\t// in\n    tag_335:\n        /* \"#utility.yul\":17525:17597   */\n      tag_336\n        /* \"#utility.yul\":17593:17595   */\n      0x40\n        /* \"#utility.yul\":17582:17591   */\n      dup4\n        /* \"#utility.yul\":17578:17596   */\n      add\n        /* \"#utility.yul\":17569:17575   */\n      dup7\n        /* \"#utility.yul\":17525:17597   */\n      tag_143\n      jump\t// in\n    tag_336:\n        /* \"#utility.yul\":17644:17653   */\n      dup2\n        /* \"#utility.yul\":17638:17642   */\n      dup2\n        /* \"#utility.yul\":17634:17654   */\n      sub\n        /* \"#utility.yul\":17629:17631   */\n      0x60\n        /* \"#utility.yul\":17618:17627   */\n      dup4\n        /* \"#utility.yul\":17614:17632   */\n      add\n        /* \"#utility.yul\":17607:17655   */\n      mstore\n        /* \"#utility.yul\":17672:17758   */\n      tag_337\n        /* \"#utility.yul\":17753:17757   */\n      dup2\n        /* \"#utility.yul\":17744:17750   */\n      dup5\n        /* \"#utility.yul\":17736:17742   */\n      dup7\n        /* \"#utility.yul\":17672:17758   */\n      tag_170\n      jump\t// in\n    tag_337:\n        /* \"#utility.yul\":17664:17758   */\n      swap1\n      pop\n        /* \"#utility.yul\":17105:17765   */\n      swap7\n      swap6\n      pop\n      pop\n      pop\n      pop\n      pop\n      pop\n      jump\t// out\n\n    auxdata: 0xa264697066735822122039ea1991caa855da72f77fa475e08ba0c4f43cf5ff2fa321a637b331d845f89c64736f6c63430008120033\n}\n",
				"bytecode": {
					"linkReferences": {},
					"object": "608060405234801561001057600080fd5b50611857806100206000396000f3fe608060405234801561001057600080fd5b50600436106100a95760003560e01c80635c475d42116100715780635c475d42146101625780636352211e1461019257806370a08231146101c2578063a22cb465146101f2578063b88d4fde1461020e578063e985e9c51461022a576100a9565b806301ffc9a7146100ae578063081812fc146100de578063095ea7b31461010e57806323b872dd1461012a57806342842e0e14610146575b600080fd5b6100c860048036038101906100c39190610fb9565b61025a565b6040516100d59190611001565b60405180910390f35b6100f860048036038101906100f39190611052565b61032c565b60405161010591906110c0565b60405180910390f35b61012860048036038101906101239190611107565b61040a565b005b610144600480360381019061013f9190611147565b6105f3565b005b610160600480360381019061015b9190611147565b6108df565b005b61017c60048036038101906101779190611052565b610a17565b60405161018991906110c0565b60405180910390f35b6101ac60048036038101906101a79190611052565b610a56565b6040516101b991906110c0565b60405180910390f35b6101dc60048036038101906101d7919061119a565b610b02565b6040516101e991906111d6565b60405180910390f35b61020c6004803603810190610207919061121d565b610bb9565b005b610228600480360381019061022391906112c2565b610cb6565b005b610244600480360381019061023f919061134a565b610df4565b6040516102519190611001565b60405180910390f35b60007f80ac58cd000000000000000000000000000000000000000000000000000000007bffffffffffffffffffffffffffffffffffffffffffffffffffffffff1916827bffffffffffffffffffffffffffffffffffffffffffffffffffffffff1916148061032557507f01ffc9a7000000000000000000000000000000000000000000000000000000007bffffffffffffffffffffffffffffffffffffffffffffffffffffffff1916827bffffffffffffffffffffffffffffffffffffffffffffffffffffffff1916145b9050919050565b60008073ffffffffffffffffffffffffffffffffffffffff166001600084815260200190815260200160002060009054906101000a900473ffffffffffffffffffffffffffffffffffffffff1673ffffffffffffffffffffffffffffffffffffffff16036103cf576040517f08c379a00000000000000000000000000000000000000000000000000000000081526004016103c6906113e7565b60405180910390fd5b6003600083815260200190815260200160002060009054906101000a900473ffffffffffffffffffffffffffffffffffffffff169050919050565b60006001600083815260200190815260200160002060009054906101000a900473ffffffffffffffffffffffffffffffffffffffff1690508073ffffffffffffffffffffffffffffffffffffffff163373ffffffffffffffffffffffffffffffffffffffff1614806105025750600460008273ffffffffffffffffffffffffffffffffffffffff1673ffffffffffffffffffffffffffffffffffffffff16815260200190815260200160002060003373ffffffffffffffffffffffffffffffffffffffff1673ffffffffffffffffffffffffffffffffffffffff16815260200190815260200160002060009054906101000a900460ff165b610541576040517f08c379a000000000000000000000000000000000000000000000000000000000815260040161053890611453565b60405180910390fd5b826003600084815260200190815260200160002060006101000a81548173ffffffffffffffffffffffffffffffffffffffff021916908373ffffffffffffffffffffffffffffffffffffffff160217905550818373ffffffffffffffffffffffffffffffffffffffff168273ffffffffffffffffffffffffffffffffffffffff167f8c5be1e5ebec7d5bd14f71427d1e84f3dd0314c0f7b2291e5b200ac8c7c3b92560405160405180910390a4505050565b6001600082815260200190815260200160002060009054906101000a900473ffffffffffffffffffffffffffffffffffffffff1673ffffffffffffffffffffffffffffffffffffffff168373ffffffffffffffffffffffffffffffffffffffff1614610694576040517f08c379a000000000000000000000000000000000000000000000000000000000815260040161068b906114bf565b60405180910390fd5b600073ffffffffffffffffffffffffffffffffffffffff168273ffffffffffffffffffffffffffffffffffffffff1603610703576040517f08c379a00000000000000000000000000000000000000000000000000000000081526004016106fa9061152b565b60405180910390fd5b61070e833383610e23565b61074d576040517f08c379a000000000000000000000000000000000000000000000000000000000815260040161074490611453565b60405180910390fd5b600260008473ffffffffffffffffffffffffffffffffffffffff1673ffffffffffffffffffffffffffffffffffffffff168152602001908152602001600020600081548092919061079d9061157a565b9190505550600260008373ffffffffffffffffffffffffffffffffffffffff1673ffffffffffffffffffffffffffffffffffffffff16815260200190815260200160002060008154809291906107f2906115a3565b9190505550816001600083815260200190815260200160002060006101000a81548173ffffffffffffffffffffffffffffffffffffffff021916908373ffffffffffffffffffffffffffffffffffffffff1602179055506003600082815260200190815260200160002060006101000a81549073ffffffffffffffffffffffffffffffffffffffff0219169055808273ffffffffffffffffffffffffffffffffffffffff168473ffffffffffffffffffffffffffffffffffffffff167fddf252ad1be2c89b69c2b068fc378daa952ba7f163c4a11628f55a4df523b3ef60405160405180910390a4505050565b6108ea8383836105f3565b60008273ffffffffffffffffffffffffffffffffffffffff163b14806109d3575063150b7a0260e01b7bffffffffffffffffffffffffffffffffffffffffffffffffffffffff19168273ffffffffffffffffffffffffffffffffffffffff1663150b7a023386856040518463ffffffff1660e01b815260040161096f93929190611622565b6020604051808303816000875af115801561098e573d6000803e3d6000fd5b505050506040513d601f19601f820116820180604052508101906109b29190611681565b7bffffffffffffffffffffffffffffffffffffffffffffffffffffffff1916145b610a12576040517f08c379a0000000000000000000000000000000000000000000000000000000008152600401610a09906116fa565b60405180910390fd5b505050565b60008181548110610a2757600080fd5b906000526020600020016000915054906101000a900473ffffffffffffffffffffffffffffffffffffffff1681565b60006001600083815260200190815260200160002060009054906101000a900473ffffffffffffffffffffffffffffffffffffffff169050600073ffffffffffffffffffffffffffffffffffffffff168173ffffffffffffffffffffffffffffffffffffffff1603610afd576040517f08c379a0000000000000000000000000000000000000000000000000000000008152600401610af4906113e7565b60405180910390fd5b919050565b60008073ffffffffffffffffffffffffffffffffffffffff168273ffffffffffffffffffffffffffffffffffffffff1603610b72576040517f08c379a0000000000000000000000000000000000000000000000000000000008152600401610b6990611766565b60405180910390fd5b600260008373ffffffffffffffffffffffffffffffffffffffff1673ffffffffffffffffffffffffffffffffffffffff168152602001908152602001600020549050919050565b80600460003373ffffffffffffffffffffffffffffffffffffffff1673ffffffffffffffffffffffffffffffffffffffff16815260200190815260200160002060008473ffffffffffffffffffffffffffffffffffffffff1673ffffffffffffffffffffffffffffffffffffffff16815260200190815260200160002060006101000a81548160ff0219169083151502179055508173ffffffffffffffffffffffffffffffffffffffff163373ffffffffffffffffffffffffffffffffffffffff167f17307eab39ab6107e8899845ad3d59bd9653f200f220920489ca2b5937696c3183604051610caa9190611001565b60405180910390a35050565b610cc18585856105f3565b60008473ffffffffffffffffffffffffffffffffffffffff163b1480610dae575063150b7a0260e01b7bffffffffffffffffffffffffffffffffffffffffffffffffffffffff19168473ffffffffffffffffffffffffffffffffffffffff1663150b7a0233888787876040518663ffffffff1660e01b8152600401610d4a9594939291906117d3565b6020604051808303816000875af1158015610d69573d6000803e3d6000fd5b505050506040513d601f19601f82011682018060405250810190610d8d9190611681565b7bffffffffffffffffffffffffffffffffffffffffffffffffffffffff1916145b610ded576040517f08c379a0000000000000000000000000000000000000000000000000000000008152600401610de4906116fa565b60405180910390fd5b5050505050565b60046020528160005260406000206020528060005260406000206000915091509054906101000a900460ff1681565b60008373ffffffffffffffffffffffffffffffffffffffff168373ffffffffffffffffffffffffffffffffffffffff161480610ee55750600460008573ffffffffffffffffffffffffffffffffffffffff1673ffffffffffffffffffffffffffffffffffffffff16815260200190815260200160002060008473ffffffffffffffffffffffffffffffffffffffff1673ffffffffffffffffffffffffffffffffffffffff16815260200190815260200160002060009054906101000a900460ff165b80610f4e57506003600083815260200190815260200160002060009054906101000a900473ffffffffffffffffffffffffffffffffffffffff1673ffffffffffffffffffffffffffffffffffffffff168373ffffffffffffffffffffffffffffffffffffffff16145b90509392505050565b600080fd5b600080fd5b60007fffffffff0000000000000000000000000000000000000000000000000000000082169050919050565b610f9681610f61565b8114610fa157600080fd5b50565b600081359050610fb381610f8d565b92915050565b600060208284031215610fcf57610fce610f57565b5b6000610fdd84828501610fa4565b91505092915050565b60008115159050919050565b610ffb81610fe6565b82525050565b60006020820190506110166000830184610ff2565b92915050565b6000819050919050565b61102f8161101c565b811461103a57600080fd5b50565b60008135905061104c81611026565b92915050565b60006020828403121561106857611067610f57565b5b60006110768482850161103d565b91505092915050565b600073ffffffffffffffffffffffffffffffffffffffff82169050919050565b60006110aa8261107f565b9050919050565b6110ba8161109f565b82525050565b60006020820190506110d560008301846110b1565b92915050565b6110e48161109f565b81146110ef57600080fd5b50565b600081359050611101816110db565b92915050565b6000806040838503121561111e5761111d610f57565b5b600061112c858286016110f2565b925050602061113d8582860161103d565b9150509250929050565b6000806000606084860312156111605761115f610f57565b5b600061116e868287016110f2565b935050602061117f868287016110f2565b92505060406111908682870161103d565b9150509250925092565b6000602082840312156111b0576111af610f57565b5b60006111be848285016110f2565b91505092915050565b6111d08161101c565b82525050565b60006020820190506111eb60008301846111c7565b92915050565b6111fa81610fe6565b811461120557600080fd5b50565b600081359050611217816111f1565b92915050565b6000806040838503121561123457611233610f57565b5b6000611242858286016110f2565b925050602061125385828601611208565b9150509250929050565b600080fd5b600080fd5b600080fd5b60008083601f8401126112825761128161125d565b5b8235905067ffffffffffffffff81111561129f5761129e611262565b5b6020830191508360018202830111156112bb576112ba611267565b5b9250929050565b6000806000806000608086880312156112de576112dd610f57565b5b60006112ec888289016110f2565b95505060206112fd888289016110f2565b945050604061130e8882890161103d565b935050606086013567ffffffffffffffff81111561132f5761132e610f5c565b5b61133b8882890161126c565b92509250509295509295909350565b6000806040838503121561136157611360610f57565b5b600061136f858286016110f2565b9250506020611380858286016110f2565b9150509250929050565b600082825260208201905092915050565b7f746f6b656e20646f65736e277420657869737400000000000000000000000000600082015250565b60006113d160138361138a565b91506113dc8261139b565b602082019050919050565b60006020820190508181036000830152611400816113c4565b9050919050565b7f6e6f7420617574686f72697a6564000000000000000000000000000000000000600082015250565b600061143d600e8361138a565b915061144882611407565b602082019050919050565b6000602082019050818103600083015261146c81611430565b9050919050565b7f66726f6d20213d206f776e657200000000000000000000000000000000000000600082015250565b60006114a9600d8361138a565b91506114b482611473565b602082019050919050565b600060208201905081810360008301526114d88161149c565b9050919050565b7f7472616e7366657220746f207a65726f20616464726573730000000000000000600082015250565b600061151560188361138a565b9150611520826114df565b602082019050919050565b6000602082019050818103600083015261154481611508565b9050919050565b7f4e487b7100000000000000000000000000000000000000000000000000000000600052601160045260246000fd5b60006115858261101c565b9150600082036115985761159761154b565b5b600182039050919050565b60006115ae8261101c565b91507fffffffffffffffffffffffffffffffffffffffffffffffffffffffffffffffff82036115e0576115df61154b565b5b600182019050919050565b600082825260208201905092915050565b50565b600061160c6000836115eb565b9150611617826115fc565b600082019050919050565b600060808201905061163760008301866110b1565b61164460208301856110b1565b61165160408301846111c7565b8181036060830152611662816115ff565b9050949350505050565b60008151905061167b81610f8d565b92915050565b60006020828403121561169757611696610f57565b5b60006116a58482850161166c565b91505092915050565b7f756e7361666520726563697069656e7400000000000000000000000000000000600082015250565b60006116e460108361138a565b91506116ef826116ae565b602082019050919050565b60006020820190508181036000830152611713816116d7565b9050919050565b7f6f776e6572203d207a65726f2061646472657373000000000000000000000000600082015250565b600061175060148361138a565b915061175b8261171a565b602082019050919050565b6000602082019050818103600083015261177f81611743565b9050919050565b82818337600083830152505050565b6000601f19601f8301169050919050565b60006117b283856115eb565b93506117bf838584611786565b6117c883611795565b840190509392505050565b60006080820190506117e860008301886110b1565b6117f560208301876110b1565b61180260408301866111c7565b81810360608301526118158184866117a6565b9050969550505050505056fea264697066735822122039ea1991caa855da72f77fa475e08ba0c4f43cf5ff2fa321a637b331d845f89c64736f6c63430008120033",
					"opcodes": "PUSH1 0x80 PUSH1 0x40 MSTORE CALLVALUE DUP1 ISZERO PUSH2 0x10 JUMPI PUSH1 0x0 DUP1 REVERT JUMPDEST POP PUSH2 0x1857 DUP1 PUSH2 0x20 PUSH1 0x0 CODECOPY PUSH1 0x0 RETURN INVALID PUSH1 0x80 PUSH1 0x40 MSTORE CALLVALUE DUP1 ISZERO PUSH2 0x10 JUMPI PUSH1 0x0 DUP1 REVERT JUMPDEST POP PUSH1 0x4 CALLDATASIZE LT PUSH2 0xA9 JUMPI PUSH1 0x0 CALLDATALOAD PUSH1 0xE0 SHR DUP1 PUSH4 0x5C475D42 GT PUSH2 0x71 JUMPI DUP1 PUSH4 0x5C475D42 EQ PUSH2 0x162 JUMPI DUP1 PUSH4 0x6352211E EQ PUSH2 0x192 JUMPI DUP1 PUSH4 0x70A08231 EQ PUSH2 0x1C2 JUMPI DUP1 PUSH4 0xA22CB465 EQ PUSH2 0x1F2 JUMPI DUP1 PUSH4 0xB88D4FDE EQ PUSH2 0x20E JUMPI DUP1 PUSH4 0xE985E9C5 EQ PUSH2 0x22A JUMPI PUSH2 0xA9 JUMP JUMPDEST DUP1 PUSH4 0x1FFC9A7 EQ PUSH2 0xAE JUMPI DUP1 PUSH4 0x81812FC EQ PUSH2 0xDE JUMPI DUP1 PUSH4 0x95EA7B3 EQ PUSH2 0x10E JUMPI DUP1 PUSH4 0x23B872DD EQ PUSH2 0x12A JUMPI DUP1 PUSH4 0x42842E0E EQ PUSH2 0x146 JUMPI JUMPDEST PUSH1 0x0 DUP1 REVERT JUMPDEST PUSH2 0xC8 PUSH1 0x4 DUP1 CALLDATASIZE SUB DUP2 ADD SWAP1 PUSH2 0xC3 SWAP2 SWAP1 PUSH2 0xFB9 JUMP JUMPDEST PUSH2 0x25A JUMP JUMPDEST PUSH1 0x40 MLOAD PUSH2 0xD5 SWAP2 SWAP1 PUSH2 0x1001 JUMP JUMPDEST PUSH1 0x40 MLOAD DUP1 SWAP2 SUB SWAP1 RETURN JUMPDEST PUSH2 0xF8 PUSH1 0x4 DUP1 CALLDATASIZE SUB DUP2 ADD SWAP1 PUSH2 0xF3 SWAP2 SWAP1 PUSH2 0x1052 JUMP JUMPDEST PUSH2 0x32C JUMP JUMPDEST PUSH1 0x40 MLOAD PUSH2 0x105 SWAP2 SWAP1 PUSH2 0x10C0 JUMP JUMPDEST PUSH1 0x40 MLOAD DUP1 SWAP2 SUB SWAP1 RETURN JUMPDEST PUSH2 0x128 PUSH1 0x4 DUP1 CALLDATASIZE SUB DUP2 ADD SWAP1 PUSH2 0x123 SWAP2 SWAP1 PUSH2 0x1107 JUMP JUMPDEST PUSH2 0x40A JUMP JUMPDEST STOP JUMPDEST PUSH2 0x144 PUSH1 0x4 DUP1 CALLDATASIZE SUB DUP2 ADD SWAP1 PUSH2 0x13F SWAP2 SWAP1 PUSH2 0x1147 JUMP JUMPDEST PUSH2 0x5F3 JUMP JUMPDEST STOP JUMPDEST PUSH2 0x160 PUSH1 0x4 DUP1 CALLDATASIZE SUB DUP2 ADD SWAP1 PUSH2 0x15B SWAP2 SWAP1 PUSH2 0x1147 JUMP JUMPDEST PUSH2 0x8DF JUMP JUMPDEST STOP JUMPDEST PUSH2 0x17C PUSH1 0x4 DUP1 CALLDATASIZE SUB DUP2 ADD SWAP1 PUSH2 0x177 SWAP2 SWAP1 PUSH2 0x1052 JUMP JUMPDEST PUSH2 0xA17 JUMP JUMPDEST PUSH1 0x40 MLOAD PUSH2 0x189 SWAP2 SWAP1 PUSH2 0x10C0 JUMP JUMPDEST PUSH1 0x40 MLOAD DUP1 SWAP2 SUB SWAP1 RETURN JUMPDEST PUSH2 0x1AC PUSH1 0x4 DUP1 CALLDATASIZE SUB DUP2 ADD SWAP1 PUSH2 0x1A7 SWAP2 SWAP1 PUSH2 0x1052 JUMP JUMPDEST PUSH2 0xA56 JUMP JUMPDEST PUSH1 0x40 MLOAD PUSH2 0x1B9 SWAP2 SWAP1 PUSH2 0x10C0 JUMP JUMPDEST PUSH1 0x40 MLOAD DUP1 SWAP2 SUB SWAP1 RETURN JUMPDEST PUSH2 0x1DC PUSH1 0x4 DUP1 CALLDATASIZE SUB DUP2 ADD SWAP1 PUSH2 0x1D7 SWAP2 SWAP1 PUSH2 0x119A JUMP JUMPDEST PUSH2 0xB02 JUMP JUMPDEST PUSH1 0x40 MLOAD PUSH2 0x1E9 SWAP2 SWAP1 PUSH2 0x11D6 JUMP JUMPDEST PUSH1 0x40 MLOAD DUP1 SWAP2 SUB SWAP1 RETURN JUMPDEST PUSH2 0x20C PUSH1 0x4 DUP1 CALLDATASIZE SUB DUP2 ADD SWAP1 PUSH2 0x207 SWAP2 SWAP1 PUSH2 0x121D JUMP JUMPDEST PUSH2 0xBB9 JUMP JUMPDEST STOP JUMPDEST PUSH2 0x228 PUSH1 0x4 DUP1 CALLDATASIZE SUB DUP2 ADD SWAP1 PUSH2 0x223 SWAP2 SWAP1 PUSH2 0x12C2 JUMP JUMPDEST PUSH2 0xCB6 JUMP JUMPDEST STOP JUMPDEST PUSH2 0x244 PUSH1 0x4 DUP1 CALLDATASIZE SUB DUP2 ADD SWAP1 PUSH2 0x23F SWAP2 SWAP1 PUSH2 0x134A JUMP JUMPDEST PUSH2 0xDF4 JUMP JUMPDEST PUSH1 0x40 MLOAD PUSH2 0x251 SWAP2 SWAP1 PUSH2 0x1001 JUMP JUMPDEST PUSH1 0x40 MLOAD DUP1 SWAP2 SUB SWAP1 RETURN JUMPDEST PUSH1 0x0 PUSH32 0x80AC58CD00000000000000000000000000000000000000000000000000000000 PUSH28 0xFFFFFFFFFFFFFFFFFFFFFFFFFFFFFFFFFFFFFFFFFFFFFFFFFFFFFFFF NOT AND DUP3 PUSH28 0xFFFFFFFFFFFFFFFFFFFFFFFFFFFFFFFFFFFFFFFFFFFFFFFFFFFFFFFF NOT AND EQ DUP1 PUSH2 0x325 JUMPI POP PUSH32 0x1FFC9A700000000000000000000000000000000000000000000000000000000 PUSH28 0xFFFFFFFFFFFFFFFFFFFFFFFFFFFFFFFFFFFFFFFFFFFFFFFFFFFFFFFF NOT AND DUP3 PUSH28 0xFFFFFFFFFFFFFFFFFFFFFFFFFFFFFFFFFFFFFFFFFFFFFFFFFFFFFFFF NOT AND EQ JUMPDEST SWAP1 POP SWAP2 SWAP1 POP JUMP JUMPDEST PUSH1 0x0 DUP1 PUSH20 0xFFFFFFFFFFFFFFFFFFFFFFFFFFFFFFFFFFFFFFFF AND PUSH1 0x1 PUSH1 0x0 DUP5 DUP2 MSTORE PUSH1 0x20 ADD SWAP1 DUP2 MSTORE PUSH1 0x20 ADD PUSH1 0x0 KECCAK256 PUSH1 0x0 SWAP1 SLOAD SWAP1 PUSH2 0x100 EXP SWAP1 DIV PUSH20 0xFFFFFFFFFFFFFFFFFFFFFFFFFFFFFFFFFFFFFFFF AND PUSH20 0xFFFFFFFFFFFFFFFFFFFFFFFFFFFFFFFFFFFFFFFF AND SUB PUSH2 0x3CF JUMPI PUSH1 0x40 MLOAD PUSH32 0x8C379A000000000000000000000000000000000000000000000000000000000 DUP2 MSTORE PUSH1 0x4 ADD PUSH2 0x3C6 SWAP1 PUSH2 0x13E7 JUMP JUMPDEST PUSH1 0x40 MLOAD DUP1 SWAP2 SUB SWAP1 REVERT JUMPDEST PUSH1 0x3 PUSH1 0x0 DUP4 DUP2 MSTORE PUSH1 0x20 ADD SWAP1 DUP2 MSTORE PUSH1 0x20 ADD PUSH1 0x0 KECCAK256 PUSH1 0x0 SWAP1 SLOAD SWAP1 PUSH2 0x100 EXP SWAP1 DIV PUSH20 0xFFFFFFFFFFFFFFFFFFFFFFFFFFFFFFFFFFFFFFFF AND SWAP1 POP SWAP2 SWAP1 POP JUMP JUMPDEST PUSH1 0x0 PUSH1 0x1 PUSH1 0x0 DUP4 DUP2 MSTORE PUSH1 0x20 ADD SWAP1 DUP2 MSTORE PUSH1 0x20 ADD PUSH1 0x0 KECCAK256 PUSH1 0x0 SWAP1 SLOAD SWAP1 PUSH2 0x100 EXP SWAP1 DIV PUSH20 0xFFFFFFFFFFFFFFFFFFFFFFFFFFFFFFFFFFFFFFFF AND SWAP1 POP DUP1 PUSH20 0xFFFFFFFFFFFFFFFFFFFFFFFFFFFFFFFFFFFFFFFF AND CALLER PUSH20 0xFFFFFFFFFFFFFFFFFFFFFFFFFFFFFFFFFFFFFFFF AND EQ DUP1 PUSH2 0x502 JUMPI POP PUSH1 0x4 PUSH1 0x0 DUP3 PUSH20 0xFFFFFFFFFFFFFFFFFFFFFFFFFFFFFFFFFFFFFFFF AND PUSH20 0xFFFFFFFFFFFFFFFFFFFFFFFFFFFFFFFFFFFFFFFF AND DUP2 MSTORE PUSH1 0x20 ADD SWAP1 DUP2 MSTORE PUSH1 0x20 ADD PUSH1 0x0 KECCAK256 PUSH1 0x0 CALLER PUSH20 0xFFFFFFFFFFFFFFFFFFFFFFFFFFFFFFFFFFFFFFFF AND PUSH20 0xFFFFFFFFFFFFFFFFFFFFFFFFFFFFFFFFFFFFFFFF AND DUP2 MSTORE PUSH1 0x20 ADD SWAP1 DUP2 MSTORE PUSH1 0x20 ADD PUSH1 0x0 KECCAK256 PUSH1 0x0 SWAP1 SLOAD SWAP1 PUSH2 0x100 EXP SWAP1 DIV PUSH1 0xFF AND JUMPDEST PUSH2 0x541 JUMPI PUSH1 0x40 MLOAD PUSH32 0x8C379A000000000000000000000000000000000000000000000000000000000 DUP2 MSTORE PUSH1 0x4 ADD PUSH2 0x538 SWAP1 PUSH2 0x1453 JUMP JUMPDEST PUSH1 0x40 MLOAD DUP1 SWAP2 SUB SWAP1 REVERT JUMPDEST DUP3 PUSH1 0x3 PUSH1 0x0 DUP5 DUP2 MSTORE PUSH1 0x20 ADD SWAP1 DUP2 MSTORE PUSH1 0x20 ADD PUSH1 0x0 KECCAK256 PUSH1 0x0 PUSH2 0x100 EXP DUP2 SLOAD DUP2 PUSH20 0xFFFFFFFFFFFFFFFFFFFFFFFFFFFFFFFFFFFFFFFF MUL NOT AND SWAP1 DUP4 PUSH20 0xFFFFFFFFFFFFFFFFFFFFFFFFFFFFFFFFFFFFFFFF AND MUL OR SWAP1 SSTORE POP DUP2 DUP4 PUSH20 0xFFFFFFFFFFFFFFFFFFFFFFFFFFFFFFFFFFFFFFFF AND DUP3 PUSH20 0xFFFFFFFFFFFFFFFFFFFFFFFFFFFFFFFFFFFFFFFF AND PUSH32 0x8C5BE1E5EBEC7D5BD14F71427D1E84F3DD0314C0F7B2291E5B200AC8C7C3B925 PUSH1 0x40 MLOAD PUSH1 0x40 MLOAD DUP1 SWAP2 SUB SWAP1 LOG4 POP POP POP JUMP JUMPDEST PUSH1 0x1 PUSH1 0x0 DUP3 DUP2 MSTORE PUSH1 0x20 ADD SWAP1 DUP2 MSTORE PUSH1 0x20 ADD PUSH1 0x0 KECCAK256 PUSH1 0x0 SWAP1 SLOAD SWAP1 PUSH2 0x100 EXP SWAP1 DIV PUSH20 0xFFFFFFFFFFFFFFFFFFFFFFFFFFFFFFFFFFFFFFFF AND PUSH20 0xFFFFFFFFFFFFFFFFFFFFFFFFFFFFFFFFFFFFFFFF AND DUP4 PUSH20 0xFFFFFFFFFFFFFFFFFFFFFFFFFFFFFFFFFFFFFFFF AND EQ PUSH2 0x694 JUMPI PUSH1 0x40 MLOAD PUSH32 0x8C379A000000000000000000000000000000000000000000000000000000000 DUP2 MSTORE PUSH1 0x4 ADD PUSH2 0x68B SWAP1 PUSH2 0x14BF JUMP JUMPDEST PUSH1 0x40 MLOAD DUP1 SWAP2 SUB SWAP1 REVERT JUMPDEST PUSH1 0x0 PUSH20 0xFFFFFFFFFFFFFFFFFFFFFFFFFFFFFFFFFFFFFFFF AND DUP3 PUSH20 0xFFFFFFFFFFFFFFFFFFFFFFFFFFFFFFFFFFFFFFFF AND SUB PUSH2 0x703 JUMPI PUSH1 0x40 MLOAD PUSH32 0x8C379A000000000000000000000000000000000000000000000000000000000 DUP2 MSTORE PUSH1 0x4 ADD PUSH2 0x6FA SWAP1 PUSH2 0x152B JUMP JUMPDEST PUSH1 0x40 MLOAD DUP1 SWAP2 SUB SWAP1 REVERT JUMPDEST PUSH2 0x70E DUP4 CALLER DUP4 PUSH2 0xE23 JUMP JUMPDEST PUSH2 0x74D JUMPI PUSH1 0x40 MLOAD PUSH32 0x8C379A000000000000000000000000000000000000000000000000000000000 DUP2 MSTORE PUSH1 0x4 ADD PUSH2 0x744 SWAP1 PUSH2 0x1453 JUMP JUMPDEST PUSH1 0x40 MLOAD DUP1 SWAP2 SUB SWAP1 REVERT JUMPDEST PUSH1 0x2 PUSH1 0x0 DUP5 PUSH20 0xFFFFFFFFFFFFFFFFFFFFFFFFFFFFFFFFFFFFFFFF AND PUSH20 0xFFFFFFFFFFFFFFFFFFFFFFFFFFFFFFFFFFFFFFFF AND DUP2 MSTORE PUSH1 0x20 ADD SWAP1 DUP2 MSTORE PUSH1 0x20 ADD PUSH1 0x0 KECCAK256 PUSH1 0x0 DUP2 SLOAD DUP1 SWAP3 SWAP2 SWAP1 PUSH2 0x79D SWAP1 PUSH2 0x157A JUMP JUMPDEST SWAP2 SWAP1 POP SSTORE POP PUSH1 0x2 PUSH1 0x0 DUP4 PUSH20 0xFFFFFFFFFFFFFFFFFFFFFFFFFFFFFFFFFFFFFFFF AND PUSH20 0xFFFFFFFFFFFFFFFFFFFFFFFFFFFFFFFFFFFFFFFF AND DUP2 MSTORE PUSH1 0x20 ADD SWAP1 DUP2 MSTORE PUSH1 0x20 ADD PUSH1 0x0 KECCAK256 PUSH1 0x0 DUP2 SLOAD DUP1 SWAP3 SWAP2 SWAP1 PUSH2 0x7F2 SWAP1 PUSH2 0x15A3 JUMP JUMPDEST SWAP2 SWAP1 POP SSTORE POP DUP2 PUSH1 0x1 PUSH1 0x0 DUP4 DUP2 MSTORE PUSH1 0x20 ADD SWAP1 DUP2 MSTORE PUSH1 0x20 ADD PUSH1 0x0 KECCAK256 PUSH1 0x0 PUSH2 0x100 EXP DUP2 SLOAD DUP2 PUSH20 0xFFFFFFFFFFFFFFFFFFFFFFFFFFFFFFFFFFFFFFFF MUL NOT AND SWAP1 DUP4 PUSH20 0xFFFFFFFFFFFFFFFFFFFFFFFFFFFFFFFFFFFFFFFF AND MUL OR SWAP1 SSTORE POP PUSH1 0x3 PUSH1 0x0 DUP3 DUP2 MSTORE PUSH1 0x20 ADD SWAP1 DUP2 MSTORE PUSH1 0x20 ADD PUSH1 0x0 KECCAK256 PUSH1 0x0 PUSH2 0x100 EXP DUP2 SLOAD SWAP1 PUSH20 0xFFFFFFFFFFFFFFFFFFFFFFFFFFFFFFFFFFFFFFFF MUL NOT AND SWAP1 SSTORE DUP1 DUP3 PUSH20 0xFFFFFFFFFFFFFFFFFFFFFFFFFFFFFFFFFFFFFFFF AND DUP5 PUSH20 0xFFFFFFFFFFFFFFFFFFFFFFFFFFFFFFFFFFFFFFFF AND PUSH32 0xDDF252AD1BE2C89B69C2B068FC378DAA952BA7F163C4A11628F55A4DF523B3EF PUSH1 0x40 MLOAD PUSH1 0x40 MLOAD DUP1 SWAP2 SUB SWAP1 LOG4 POP POP POP JUMP JUMPDEST PUSH2 0x8EA DUP4 DUP4 DUP4 PUSH2 0x5F3 JUMP JUMPDEST PUSH1 0x0 DUP3 PUSH20 0xFFFFFFFFFFFFFFFFFFFFFFFFFFFFFFFFFFFFFFFF AND EXTCODESIZE EQ DUP1 PUSH2 0x9D3 JUMPI POP PUSH4 0x150B7A02 PUSH1 0xE0 SHL PUSH28 0xFFFFFFFFFFFFFFFFFFFFFFFFFFFFFFFFFFFFFFFFFFFFFFFFFFFFFFFF NOT AND DUP3 PUSH20 0xFFFFFFFFFFFFFFFFFFFFFFFFFFFFFFFFFFFFFFFF AND PUSH4 0x150B7A02 CALLER DUP7 DUP6 PUSH1 0x40 MLOAD DUP5 PUSH4 0xFFFFFFFF AND PUSH1 0xE0 SHL DUP2 MSTORE PUSH1 0x4 ADD PUSH2 0x96F SWAP4 SWAP3 SWAP2 SWAP1 PUSH2 0x1622 JUMP JUMPDEST PUSH1 0x20 PUSH1 0x40 MLOAD DUP1 DUP4 SUB DUP2 PUSH1 0x0 DUP8 GAS CALL ISZERO DUP1 ISZERO PUSH2 0x98E JUMPI RETURNDATASIZE PUSH1 0x0 DUP1 RETURNDATACOPY RETURNDATASIZE PUSH1 0x0 REVERT JUMPDEST POP POP POP POP PUSH1 0x40 MLOAD RETURNDATASIZE PUSH1 0x1F NOT PUSH1 0x1F DUP3 ADD AND DUP3 ADD DUP1 PUSH1 0x40 MSTORE POP DUP2 ADD SWAP1 PUSH2 0x9B2 SWAP2 SWAP1 PUSH2 0x1681 JUMP JUMPDEST PUSH28 0xFFFFFFFFFFFFFFFFFFFFFFFFFFFFFFFFFFFFFFFFFFFFFFFFFFFFFFFF NOT AND EQ JUMPDEST PUSH2 0xA12 JUMPI PUSH1 0x40 MLOAD PUSH32 0x8C379A000000000000000000000000000000000000000000000000000000000 DUP2 MSTORE PUSH1 0x4 ADD PUSH2 0xA09 SWAP1 PUSH2 0x16FA JUMP JUMPDEST PUSH1 0x40 MLOAD DUP1 SWAP2 SUB SWAP1 REVERT JUMPDEST POP POP POP JUMP JUMPDEST PUSH1 0x0 DUP2 DUP2 SLOAD DUP2 LT PUSH2 0xA27 JUMPI PUSH1 0x0 DUP1 REVERT JUMPDEST SWAP1 PUSH1 0x0 MSTORE PUSH1 0x20 PUSH1 0x0 KECCAK256 ADD PUSH1 0x0 SWAP2 POP SLOAD SWAP1 PUSH2 0x100 EXP SWAP1 DIV PUSH20 0xFFFFFFFFFFFFFFFFFFFFFFFFFFFFFFFFFFFFFFFF AND DUP2 JUMP JUMPDEST PUSH1 0x0 PUSH1 0x1 PUSH1 0x0 DUP4 DUP2 MSTORE PUSH1 0x20 ADD SWAP1 DUP2 MSTORE PUSH1 0x20 ADD PUSH1 0x0 KECCAK256 PUSH1 0x0 SWAP1 SLOAD SWAP1 PUSH2 0x100 EXP SWAP1 DIV PUSH20 0xFFFFFFFFFFFFFFFFFFFFFFFFFFFFFFFFFFFFFFFF AND SWAP1 POP PUSH1 0x0 PUSH20 0xFFFFFFFFFFFFFFFFFFFFFFFFFFFFFFFFFFFFFFFF AND DUP2 PUSH20 0xFFFFFFFFFFFFFFFFFFFFFFFFFFFFFFFFFFFFFFFF AND SUB PUSH2 0xAFD JUMPI PUSH1 0x40 MLOAD PUSH32 0x8C379A000000000000000000000000000000000000000000000000000000000 DUP2 MSTORE PUSH1 0x4 ADD PUSH2 0xAF4 SWAP1 PUSH2 0x13E7 JUMP JUMPDEST PUSH1 0x40 MLOAD DUP1 SWAP2 SUB SWAP1 REVERT JUMPDEST SWAP2 SWAP1 POP JUMP JUMPDEST PUSH1 0x0 DUP1 PUSH20 0xFFFFFFFFFFFFFFFFFFFFFFFFFFFFFFFFFFFFFFFF AND DUP3 PUSH20 0xFFFFFFFFFFFFFFFFFFFFFFFFFFFFFFFFFFFFFFFF AND SUB PUSH2 0xB72 JUMPI PUSH1 0x40 MLOAD PUSH32 0x8C379A000000000000000000000000000000000000000000000000000000000 DUP2 MSTORE PUSH1 0x4 ADD PUSH2 0xB69 SWAP1 PUSH2 0x1766 JUMP JUMPDEST PUSH1 0x40 MLOAD DUP1 SWAP2 SUB SWAP1 REVERT JUMPDEST PUSH1 0x2 PUSH1 0x0 DUP4 PUSH20 0xFFFFFFFFFFFFFFFFFFFFFFFFFFFFFFFFFFFFFFFF AND PUSH20 0xFFFFFFFFFFFFFFFFFFFFFFFFFFFFFFFFFFFFFFFF AND DUP2 MSTORE PUSH1 0x20 ADD SWAP1 DUP2 MSTORE PUSH1 0x20 ADD PUSH1 0x0 KECCAK256 SLOAD SWAP1 POP SWAP2 SWAP1 POP JUMP JUMPDEST DUP1 PUSH1 0x4 PUSH1 0x0 CALLER PUSH20 0xFFFFFFFFFFFFFFFFFFFFFFFFFFFFFFFFFFFFFFFF AND PUSH20 0xFFFFFFFFFFFFFFFFFFFFFFFFFFFFFFFFFFFFFFFF AND DUP2 MSTORE PUSH1 0x20 ADD SWAP1 DUP2 MSTORE PUSH1 0x20 ADD PUSH1 0x0 KECCAK256 PUSH1 0x0 DUP5 PUSH20 0xFFFFFFFFFFFFFFFFFFFFFFFFFFFFFFFFFFFFFFFF AND PUSH20 0xFFFFFFFFFFFFFFFFFFFFFFFFFFFFFFFFFFFFFFFF AND DUP2 MSTORE PUSH1 0x20 ADD SWAP1 DUP2 MSTORE PUSH1 0x20 ADD PUSH1 0x0 KECCAK256 PUSH1 0x0 PUSH2 0x100 EXP DUP2 SLOAD DUP2 PUSH1 0xFF MUL NOT AND SWAP1 DUP4 ISZERO ISZERO MUL OR SWAP1 SSTORE POP DUP2 PUSH20 0xFFFFFFFFFFFFFFFFFFFFFFFFFFFFFFFFFFFFFFFF AND CALLER PUSH20 0xFFFFFFFFFFFFFFFFFFFFFFFFFFFFFFFFFFFFFFFF AND PUSH32 0x17307EAB39AB6107E8899845AD3D59BD9653F200F220920489CA2B5937696C31 DUP4 PUSH1 0x40 MLOAD PUSH2 0xCAA SWAP2 SWAP1 PUSH2 0x1001 JUMP JUMPDEST PUSH1 0x40 MLOAD DUP1 SWAP2 SUB SWAP1 LOG3 POP POP JUMP JUMPDEST PUSH2 0xCC1 DUP6 DUP6 DUP6 PUSH2 0x5F3 JUMP JUMPDEST PUSH1 0x0 DUP5 PUSH20 0xFFFFFFFFFFFFFFFFFFFFFFFFFFFFFFFFFFFFFFFF AND EXTCODESIZE EQ DUP1 PUSH2 0xDAE JUMPI POP PUSH4 0x150B7A02 PUSH1 0xE0 SHL PUSH28 0xFFFFFFFFFFFFFFFFFFFFFFFFFFFFFFFFFFFFFFFFFFFFFFFFFFFFFFFF NOT AND DUP5 PUSH20 0xFFFFFFFFFFFFFFFFFFFFFFFFFFFFFFFFFFFFFFFF AND PUSH4 0x150B7A02 CALLER DUP9 DUP8 DUP8 DUP8 PUSH1 0x40 MLOAD DUP7 PUSH4 0xFFFFFFFF AND PUSH1 0xE0 SHL DUP2 MSTORE PUSH1 0x4 ADD PUSH2 0xD4A SWAP6 SWAP5 SWAP4 SWAP3 SWAP2 SWAP1 PUSH2 0x17D3 JUMP JUMPDEST PUSH1 0x20 PUSH1 0x40 MLOAD DUP1 DUP4 SUB DUP2 PUSH1 0x0 DUP8 GAS CALL ISZERO DUP1 ISZERO PUSH2 0xD69 JUMPI RETURNDATASIZE PUSH1 0x0 DUP1 RETURNDATACOPY RETURNDATASIZE PUSH1 0x0 REVERT JUMPDEST POP POP POP POP PUSH1 0x40 MLOAD RETURNDATASIZE PUSH1 0x1F NOT PUSH1 0x1F DUP3 ADD AND DUP3 ADD DUP1 PUSH1 0x40 MSTORE POP DUP2 ADD SWAP1 PUSH2 0xD8D SWAP2 SWAP1 PUSH2 0x1681 JUMP JUMPDEST PUSH28 0xFFFFFFFFFFFFFFFFFFFFFFFFFFFFFFFFFFFFFFFFFFFFFFFFFFFFFFFF NOT AND EQ JUMPDEST PUSH2 0xDED JUMPI PUSH1 0x40 MLOAD PUSH32 0x8C379A000000000000000000000000000000000000000000000000000000000 DUP2 MSTORE PUSH1 0x4 ADD PUSH2 0xDE4 SWAP1 PUSH2 0x16FA JUMP JUMPDEST PUSH1 0x40 MLOAD DUP1 SWAP2 SUB SWAP1 REVERT JUMPDEST POP POP POP POP POP JUMP JUMPDEST PUSH1 0x4 PUSH1 0x20 MSTORE DUP2 PUSH1 0x0 MSTORE PUSH1 0x40 PUSH1 0x0 KECCAK256 PUSH1 0x20 MSTORE DUP1 PUSH1 0x0 MSTORE PUSH1 0x40 PUSH1 0x0 KECCAK256 PUSH1 0x0 SWAP2 POP SWAP2 POP SWAP1 SLOAD SWAP1 PUSH2 0x100 EXP SWAP1 DIV PUSH1 0xFF AND DUP2 JUMP JUMPDEST PUSH1 0x0 DUP4 PUSH20 0xFFFFFFFFFFFFFFFFFFFFFFFFFFFFFFFFFFFFFFFF AND DUP4 PUSH20 0xFFFFFFFFFFFFFFFFFFFFFFFFFFFFFFFFFFFFFFFF AND EQ DUP1 PUSH2 0xEE5 JUMPI POP PUSH1 0x4 PUSH1 0x0 DUP6 PUSH20 0xFFFFFFFFFFFFFFFFFFFFFFFFFFFFFFFFFFFFFFFF AND PUSH20 0xFFFFFFFFFFFFFFFFFFFFFFFFFFFFFFFFFFFFFFFF AND DUP2 MSTORE PUSH1 0x20 ADD SWAP1 DUP2 MSTORE PUSH1 0x20 ADD PUSH1 0x0 KECCAK256 PUSH1 0x0 DUP5 PUSH20 0xFFFFFFFFFFFFFFFFFFFFFFFFFFFFFFFFFFFFFFFF AND PUSH20 0xFFFFFFFFFFFFFFFFFFFFFFFFFFFFFFFFFFFFFFFF AND DUP2 MSTORE PUSH1 0x20 ADD SWAP1 DUP2 MSTORE PUSH1 0x20 ADD PUSH1 0x0 KECCAK256 PUSH1 0x0 SWAP1 SLOAD SWAP1 PUSH2 0x100 EXP SWAP1 DIV PUSH1 0xFF AND JUMPDEST DUP1 PUSH2 0xF4E JUMPI POP PUSH1 0x3 PUSH1 0x0 DUP4 DUP2 MSTORE PUSH1 0x20 ADD SWAP1 DUP2 MSTORE PUSH1 0x20 ADD PUSH1 0x0 KECCAK256 PUSH1 0x0 SWAP1 SLOAD SWAP1 PUSH2 0x100 EXP SWAP1 DIV PUSH20 0xFFFFFFFFFFFFFFFFFFFFFFFFFFFFFFFFFFFFFFFF AND PUSH20 0xFFFFFFFFFFFFFFFFFFFFFFFFFFFFFFFFFFFFFFFF AND DUP4 PUSH20 0xFFFFFFFFFFFFFFFFFFFFFFFFFFFFFFFFFFFFFFFF AND EQ JUMPDEST SWAP1 POP SWAP4 SWAP3 POP POP POP JUMP JUMPDEST PUSH1 0x0 DUP1 REVERT JUMPDEST PUSH1 0x0 DUP1 REVERT JUMPDEST PUSH1 0x0 PUSH32 0xFFFFFFFF00000000000000000000000000000000000000000000000000000000 DUP3 AND SWAP1 POP SWAP2 SWAP1 POP JUMP JUMPDEST PUSH2 0xF96 DUP2 PUSH2 0xF61 JUMP JUMPDEST DUP2 EQ PUSH2 0xFA1 JUMPI PUSH1 0x0 DUP1 REVERT JUMPDEST POP JUMP JUMPDEST PUSH1 0x0 DUP2 CALLDATALOAD SWAP1 POP PUSH2 0xFB3 DUP2 PUSH2 0xF8D JUMP JUMPDEST SWAP3 SWAP2 POP POP JUMP JUMPDEST PUSH1 0x0 PUSH1 0x20 DUP3 DUP5 SUB SLT ISZERO PUSH2 0xFCF JUMPI PUSH2 0xFCE PUSH2 0xF57 JUMP JUMPDEST JUMPDEST PUSH1 0x0 PUSH2 0xFDD DUP5 DUP3 DUP6 ADD PUSH2 0xFA4 JUMP JUMPDEST SWAP2 POP POP SWAP3 SWAP2 POP POP JUMP JUMPDEST PUSH1 0x0 DUP2 ISZERO ISZERO SWAP1 POP SWAP2 SWAP1 POP JUMP JUMPDEST PUSH2 0xFFB DUP2 PUSH2 0xFE6 JUMP JUMPDEST DUP3 MSTORE POP POP JUMP JUMPDEST PUSH1 0x0 PUSH1 0x20 DUP3 ADD SWAP1 POP PUSH2 0x1016 PUSH1 0x0 DUP4 ADD DUP5 PUSH2 0xFF2 JUMP JUMPDEST SWAP3 SWAP2 POP POP JUMP JUMPDEST PUSH1 0x0 DUP2 SWAP1 POP SWAP2 SWAP1 POP JUMP JUMPDEST PUSH2 0x102F DUP2 PUSH2 0x101C JUMP JUMPDEST DUP2 EQ PUSH2 0x103A JUMPI PUSH1 0x0 DUP1 REVERT JUMPDEST POP JUMP JUMPDEST PUSH1 0x0 DUP2 CALLDATALOAD SWAP1 POP PUSH2 0x104C DUP2 PUSH2 0x1026 JUMP JUMPDEST SWAP3 SWAP2 POP POP JUMP JUMPDEST PUSH1 0x0 PUSH1 0x20 DUP3 DUP5 SUB SLT ISZERO PUSH2 0x1068 JUMPI PUSH2 0x1067 PUSH2 0xF57 JUMP JUMPDEST JUMPDEST PUSH1 0x0 PUSH2 0x1076 DUP5 DUP3 DUP6 ADD PUSH2 0x103D JUMP JUMPDEST SWAP2 POP POP SWAP3 SWAP2 POP POP JUMP JUMPDEST PUSH1 0x0 PUSH20 0xFFFFFFFFFFFFFFFFFFFFFFFFFFFFFFFFFFFFFFFF DUP3 AND SWAP1 POP SWAP2 SWAP1 POP JUMP JUMPDEST PUSH1 0x0 PUSH2 0x10AA DUP3 PUSH2 0x107F JUMP JUMPDEST SWAP1 POP SWAP2 SWAP1 POP JUMP JUMPDEST PUSH2 0x10BA DUP2 PUSH2 0x109F JUMP JUMPDEST DUP3 MSTORE POP POP JUMP JUMPDEST PUSH1 0x0 PUSH1 0x20 DUP3 ADD SWAP1 POP PUSH2 0x10D5 PUSH1 0x0 DUP4 ADD DUP5 PUSH2 0x10B1 JUMP JUMPDEST SWAP3 SWAP2 POP POP JUMP JUMPDEST PUSH2 0x10E4 DUP2 PUSH2 0x109F JUMP JUMPDEST DUP2 EQ PUSH2 0x10EF JUMPI PUSH1 0x0 DUP1 REVERT JUMPDEST POP JUMP JUMPDEST PUSH1 0x0 DUP2 CALLDATALOAD SWAP1 POP PUSH2 0x1101 DUP2 PUSH2 0x10DB JUMP JUMPDEST SWAP3 SWAP2 POP POP JUMP JUMPDEST PUSH1 0x0 DUP1 PUSH1 0x40 DUP4 DUP6 SUB SLT ISZERO PUSH2 0x111E JUMPI PUSH2 0x111D PUSH2 0xF57 JUMP JUMPDEST JUMPDEST PUSH1 0x0 PUSH2 0x112C DUP6 DUP3 DUP7 ADD PUSH2 0x10F2 JUMP JUMPDEST SWAP3 POP POP PUSH1 0x20 PUSH2 0x113D DUP6 DUP3 DUP7 ADD PUSH2 0x103D JUMP JUMPDEST SWAP2 POP POP SWAP3 POP SWAP3 SWAP1 POP JUMP JUMPDEST PUSH1 0x0 DUP1 PUSH1 0x0 PUSH1 0x60 DUP5 DUP7 SUB SLT ISZERO PUSH2 0x1160 JUMPI PUSH2 0x115F PUSH2 0xF57 JUMP JUMPDEST JUMPDEST PUSH1 0x0 PUSH2 0x116E DUP7 DUP3 DUP8 ADD PUSH2 0x10F2 JUMP JUMPDEST SWAP4 POP POP PUSH1 0x20 PUSH2 0x117F DUP7 DUP3 DUP8 ADD PUSH2 0x10F2 JUMP JUMPDEST SWAP3 POP POP PUSH1 0x40 PUSH2 0x1190 DUP7 DUP3 DUP8 ADD PUSH2 0x103D JUMP JUMPDEST SWAP2 POP POP SWAP3 POP SWAP3 POP SWAP3 JUMP JUMPDEST PUSH1 0x0 PUSH1 0x20 DUP3 DUP5 SUB SLT ISZERO PUSH2 0x11B0 JUMPI PUSH2 0x11AF PUSH2 0xF57 JUMP JUMPDEST JUMPDEST PUSH1 0x0 PUSH2 0x11BE DUP5 DUP3 DUP6 ADD PUSH2 0x10F2 JUMP JUMPDEST SWAP2 POP POP SWAP3 SWAP2 POP POP JUMP JUMPDEST PUSH2 0x11D0 DUP2 PUSH2 0x101C JUMP JUMPDEST DUP3 MSTORE POP POP JUMP JUMPDEST PUSH1 0x0 PUSH1 0x20 DUP3 ADD SWAP1 POP PUSH2 0x11EB PUSH1 0x0 DUP4 ADD DUP5 PUSH2 0x11C7 JUMP JUMPDEST SWAP3 SWAP2 POP POP JUMP JUMPDEST PUSH2 0x11FA DUP2 PUSH2 0xFE6 JUMP JUMPDEST DUP2 EQ PUSH2 0x1205 JUMPI PUSH1 0x0 DUP1 REVERT JUMPDEST POP JUMP JUMPDEST PUSH1 0x0 DUP2 CALLDATALOAD SWAP1 POP PUSH2 0x1217 DUP2 PUSH2 0x11F1 JUMP JUMPDEST SWAP3 SWAP2 POP POP JUMP JUMPDEST PUSH1 0x0 DUP1 PUSH1 0x40 DUP4 DUP6 SUB SLT ISZERO PUSH2 0x1234 JUMPI PUSH2 0x1233 PUSH2 0xF57 JUMP JUMPDEST JUMPDEST PUSH1 0x0 PUSH2 0x1242 DUP6 DUP3 DUP7 ADD PUSH2 0x10F2 JUMP JUMPDEST SWAP3 POP POP PUSH1 0x20 PUSH2 0x1253 DUP6 DUP3 DUP7 ADD PUSH2 0x1208 JUMP JUMPDEST SWAP2 POP POP SWAP3 POP SWAP3 SWAP1 POP JUMP JUMPDEST PUSH1 0x0 DUP1 REVERT JUMPDEST PUSH1 0x0 DUP1 REVERT JUMPDEST PUSH1 0x0 DUP1 REVERT JUMPDEST PUSH1 0x0 DUP1 DUP4 PUSH1 0x1F DUP5 ADD SLT PUSH2 0x1282 JUMPI PUSH2 0x1281 PUSH2 0x125D JUMP JUMPDEST JUMPDEST DUP3 CALLDATALOAD SWAP1 POP PUSH8 0xFFFFFFFFFFFFFFFF DUP2 GT ISZERO PUSH2 0x129F JUMPI PUSH2 0x129E PUSH2 0x1262 JUMP JUMPDEST JUMPDEST PUSH1 0x20 DUP4 ADD SWAP2 POP DUP4 PUSH1 0x1 DUP3 MUL DUP4 ADD GT ISZERO PUSH2 0x12BB JUMPI PUSH2 0x12BA PUSH2 0x1267 JUMP JUMPDEST JUMPDEST SWAP3 POP SWAP3 SWAP1 POP JUMP JUMPDEST PUSH1 0x0 DUP1 PUSH1 0x0 DUP1 PUSH1 0x0 PUSH1 0x80 DUP7 DUP9 SUB SLT ISZERO PUSH2 0x12DE JUMPI PUSH2 0x12DD PUSH2 0xF57 JUMP JUMPDEST JUMPDEST PUSH1 0x0 PUSH2 0x12EC DUP9 DUP3 DUP10 ADD PUSH2 0x10F2 JUMP JUMPDEST SWAP6 POP POP PUSH1 0x20 PUSH2 0x12FD DUP9 DUP3 DUP10 ADD PUSH2 0x10F2 JUMP JUMPDEST SWAP5 POP POP PUSH1 0x40 PUSH2 0x130E DUP9 DUP3 DUP10 ADD PUSH2 0x103D JUMP JUMPDEST SWAP4 POP POP PUSH1 0x60 DUP7 ADD CALLDATALOAD PUSH8 0xFFFFFFFFFFFFFFFF DUP2 GT ISZERO PUSH2 0x132F JUMPI PUSH2 0x132E PUSH2 0xF5C JUMP JUMPDEST JUMPDEST PUSH2 0x133B DUP9 DUP3 DUP10 ADD PUSH2 0x126C JUMP JUMPDEST SWAP3 POP SWAP3 POP POP SWAP3 SWAP6 POP SWAP3 SWAP6 SWAP1 SWAP4 POP JUMP JUMPDEST PUSH1 0x0 DUP1 PUSH1 0x40 DUP4 DUP6 SUB SLT ISZERO PUSH2 0x1361 JUMPI PUSH2 0x1360 PUSH2 0xF57 JUMP JUMPDEST JUMPDEST PUSH1 0x0 PUSH2 0x136F DUP6 DUP3 DUP7 ADD PUSH2 0x10F2 JUMP JUMPDEST SWAP3 POP POP PUSH1 0x20 PUSH2 0x1380 DUP6 DUP3 DUP7 ADD PUSH2 0x10F2 JUMP JUMPDEST SWAP2 POP POP SWAP3 POP SWAP3 SWAP1 POP JUMP JUMPDEST PUSH1 0x0 DUP3 DUP3 MSTORE PUSH1 0x20 DUP3 ADD SWAP1 POP SWAP3 SWAP2 POP POP JUMP JUMPDEST PUSH32 0x746F6B656E20646F65736E277420657869737400000000000000000000000000 PUSH1 0x0 DUP3 ADD MSTORE POP JUMP JUMPDEST PUSH1 0x0 PUSH2 0x13D1 PUSH1 0x13 DUP4 PUSH2 0x138A JUMP JUMPDEST SWAP2 POP PUSH2 0x13DC DUP3 PUSH2 0x139B JUMP JUMPDEST PUSH1 0x20 DUP3 ADD SWAP1 POP SWAP2 SWAP1 POP JUMP JUMPDEST PUSH1 0x0 PUSH1 0x20 DUP3 ADD SWAP1 POP DUP2 DUP2 SUB PUSH1 0x0 DUP4 ADD MSTORE PUSH2 0x1400 DUP2 PUSH2 0x13C4 JUMP JUMPDEST SWAP1 POP SWAP2 SWAP1 POP JUMP JUMPDEST PUSH32 0x6E6F7420617574686F72697A6564000000000000000000000000000000000000 PUSH1 0x0 DUP3 ADD MSTORE POP JUMP JUMPDEST PUSH1 0x0 PUSH2 0x143D PUSH1 0xE DUP4 PUSH2 0x138A JUMP JUMPDEST SWAP2 POP PUSH2 0x1448 DUP3 PUSH2 0x1407 JUMP JUMPDEST PUSH1 0x20 DUP3 ADD SWAP1 POP SWAP2 SWAP1 POP JUMP JUMPDEST PUSH1 0x0 PUSH1 0x20 DUP3 ADD SWAP1 POP DUP2 DUP2 SUB PUSH1 0x0 DUP4 ADD MSTORE PUSH2 0x146C DUP2 PUSH2 0x1430 JUMP JUMPDEST SWAP1 POP SWAP2 SWAP1 POP JUMP JUMPDEST PUSH32 0x66726F6D20213D206F776E657200000000000000000000000000000000000000 PUSH1 0x0 DUP3 ADD MSTORE POP JUMP JUMPDEST PUSH1 0x0 PUSH2 0x14A9 PUSH1 0xD DUP4 PUSH2 0x138A JUMP JUMPDEST SWAP2 POP PUSH2 0x14B4 DUP3 PUSH2 0x1473 JUMP JUMPDEST PUSH1 0x20 DUP3 ADD SWAP1 POP SWAP2 SWAP1 POP JUMP JUMPDEST PUSH1 0x0 PUSH1 0x20 DUP3 ADD SWAP1 POP DUP2 DUP2 SUB PUSH1 0x0 DUP4 ADD MSTORE PUSH2 0x14D8 DUP2 PUSH2 0x149C JUMP JUMPDEST SWAP1 POP SWAP2 SWAP1 POP JUMP JUMPDEST PUSH32 0x7472616E7366657220746F207A65726F20616464726573730000000000000000 PUSH1 0x0 DUP3 ADD MSTORE POP JUMP JUMPDEST PUSH1 0x0 PUSH2 0x1515 PUSH1 0x18 DUP4 PUSH2 0x138A JUMP JUMPDEST SWAP2 POP PUSH2 0x1520 DUP3 PUSH2 0x14DF JUMP JUMPDEST PUSH1 0x20 DUP3 ADD SWAP1 POP SWAP2 SWAP1 POP JUMP JUMPDEST PUSH1 0x0 PUSH1 0x20 DUP3 ADD SWAP1 POP DUP2 DUP2 SUB PUSH1 0x0 DUP4 ADD MSTORE PUSH2 0x1544 DUP2 PUSH2 0x1508 JUMP JUMPDEST SWAP1 POP SWAP2 SWAP1 POP JUMP JUMPDEST PUSH32 0x4E487B7100000000000000000000000000000000000000000000000000000000 PUSH1 0x0 MSTORE PUSH1 0x11 PUSH1 0x4 MSTORE PUSH1 0x24 PUSH1 0x0 REVERT JUMPDEST PUSH1 0x0 PUSH2 0x1585 DUP3 PUSH2 0x101C JUMP JUMPDEST SWAP2 POP PUSH1 0x0 DUP3 SUB PUSH2 0x1598 JUMPI PUSH2 0x1597 PUSH2 0x154B JUMP JUMPDEST JUMPDEST PUSH1 0x1 DUP3 SUB SWAP1 POP SWAP2 SWAP1 POP JUMP JUMPDEST PUSH1 0x0 PUSH2 0x15AE DUP3 PUSH2 0x101C JUMP JUMPDEST SWAP2 POP PUSH32 0xFFFFFFFFFFFFFFFFFFFFFFFFFFFFFFFFFFFFFFFFFFFFFFFFFFFFFFFFFFFFFFFF DUP3 SUB PUSH2 0x15E0 JUMPI PUSH2 0x15DF PUSH2 0x154B JUMP JUMPDEST JUMPDEST PUSH1 0x1 DUP3 ADD SWAP1 POP SWAP2 SWAP1 POP JUMP JUMPDEST PUSH1 0x0 DUP3 DUP3 MSTORE PUSH1 0x20 DUP3 ADD SWAP1 POP SWAP3 SWAP2 POP POP JUMP JUMPDEST POP JUMP JUMPDEST PUSH1 0x0 PUSH2 0x160C PUSH1 0x0 DUP4 PUSH2 0x15EB JUMP JUMPDEST SWAP2 POP PUSH2 0x1617 DUP3 PUSH2 0x15FC JUMP JUMPDEST PUSH1 0x0 DUP3 ADD SWAP1 POP SWAP2 SWAP1 POP JUMP JUMPDEST PUSH1 0x0 PUSH1 0x80 DUP3 ADD SWAP1 POP PUSH2 0x1637 PUSH1 0x0 DUP4 ADD DUP7 PUSH2 0x10B1 JUMP JUMPDEST PUSH2 0x1644 PUSH1 0x20 DUP4 ADD DUP6 PUSH2 0x10B1 JUMP JUMPDEST PUSH2 0x1651 PUSH1 0x40 DUP4 ADD DUP5 PUSH2 0x11C7 JUMP JUMPDEST DUP2 DUP2 SUB PUSH1 0x60 DUP4 ADD MSTORE PUSH2 0x1662 DUP2 PUSH2 0x15FF JUMP JUMPDEST SWAP1 POP SWAP5 SWAP4 POP POP POP POP JUMP JUMPDEST PUSH1 0x0 DUP2 MLOAD SWAP1 POP PUSH2 0x167B DUP2 PUSH2 0xF8D JUMP JUMPDEST SWAP3 SWAP2 POP POP JUMP JUMPDEST PUSH1 0x0 PUSH1 0x20 DUP3 DUP5 SUB SLT ISZERO PUSH2 0x1697 JUMPI PUSH2 0x1696 PUSH2 0xF57 JUMP JUMPDEST JUMPDEST PUSH1 0x0 PUSH2 0x16A5 DUP5 DUP3 DUP6 ADD PUSH2 0x166C JUMP JUMPDEST SWAP2 POP POP SWAP3 SWAP2 POP POP JUMP JUMPDEST PUSH32 0x756E7361666520726563697069656E7400000000000000000000000000000000 PUSH1 0x0 DUP3 ADD MSTORE POP JUMP JUMPDEST PUSH1 0x0 PUSH2 0x16E4 PUSH1 0x10 DUP4 PUSH2 0x138A JUMP JUMPDEST SWAP2 POP PUSH2 0x16EF DUP3 PUSH2 0x16AE JUMP JUMPDEST PUSH1 0x20 DUP3 ADD SWAP1 POP SWAP2 SWAP1 POP JUMP JUMPDEST PUSH1 0x0 PUSH1 0x20 DUP3 ADD SWAP1 POP DUP2 DUP2 SUB PUSH1 0x0 DUP4 ADD MSTORE PUSH2 0x1713 DUP2 PUSH2 0x16D7 JUMP JUMPDEST SWAP1 POP SWAP2 SWAP1 POP JUMP JUMPDEST PUSH32 0x6F776E6572203D207A65726F2061646472657373000000000000000000000000 PUSH1 0x0 DUP3 ADD MSTORE POP JUMP JUMPDEST PUSH1 0x0 PUSH2 0x1750 PUSH1 0x14 DUP4 PUSH2 0x138A JUMP JUMPDEST SWAP2 POP PUSH2 0x175B DUP3 PUSH2 0x171A JUMP JUMPDEST PUSH1 0x20 DUP3 ADD SWAP1 POP SWAP2 SWAP1 POP JUMP JUMPDEST PUSH1 0x0 PUSH1 0x20 DUP3 ADD SWAP1 POP DUP2 DUP2 SUB PUSH1 0x0 DUP4 ADD MSTORE PUSH2 0x177F DUP2 PUSH2 0x1743 JUMP JUMPDEST SWAP1 POP SWAP2 SWAP1 POP JUMP JUMPDEST DUP3 DUP2 DUP4 CALLDATACOPY PUSH1 0x0 DUP4 DUP4 ADD MSTORE POP POP POP JUMP JUMPDEST PUSH1 0x0 PUSH1 0x1F NOT PUSH1 0x1F DUP4 ADD AND SWAP1 POP SWAP2 SWAP1 POP JUMP JUMPDEST PUSH1 0x0 PUSH2 0x17B2 DUP4 DUP6 PUSH2 0x15EB JUMP JUMPDEST SWAP4 POP PUSH2 0x17BF DUP4 DUP6 DUP5 PUSH2 0x1786 JUMP JUMPDEST PUSH2 0x17C8 DUP4 PUSH2 0x1795 JUMP JUMPDEST DUP5 ADD SWAP1 POP SWAP4 SWAP3 POP POP POP JUMP JUMPDEST PUSH1 0x0 PUSH1 0x80 DUP3 ADD SWAP1 POP PUSH2 0x17E8 PUSH1 0x0 DUP4 ADD DUP9 PUSH2 0x10B1 JUMP JUMPDEST PUSH2 0x17F5 PUSH1 0x20 DUP4 ADD DUP8 PUSH2 0x10B1 JUMP JUMPDEST PUSH2 0x1802 PUSH1 0x40 DUP4 ADD DUP7 PUSH2 0x11C7 JUMP JUMPDEST DUP2 DUP2 SUB PUSH1 0x60 DUP4 ADD MSTORE PUSH2 0x1815 DUP2 DUP5 DUP7 PUSH2 0x17A6 JUMP JUMPDEST SWAP1 POP SWAP7 SWAP6 POP POP POP POP POP POP JUMP INVALID LOG2 PUSH5 0x6970667358 0x22 SLT KECCAK256 CODECOPY 0xEA NOT SWAP2 0xCA 0xA8 SSTORE 0xDA PUSH19 0xF77FA475E08BA0C4F43CF5FF2FA321A637B331 0xD8 GASLIMIT 0xF8 SWAP13 PUSH5 0x736F6C6343 STOP ADDMOD SLT STOP CALLER "
				},
				"gasEstimates": {
					"creation": {
						"codeDepositCost": "1246200",
						"executionCost": "1295",
						"totalCost": "1247495"
					},
					"external": {
						"approve(address,uint256)": "31539",
						"balanceOf(address)": "2920",
						"getApproved(uint256)": "5137",
						"isApprovedForAll(address,address)": "infinite",
						"ownerOf(uint256)": "2975",
						"safeTransferFrom(address,address,uint256)": "infinite",
						"safeTransferFrom(address,address,uint256,bytes)": "infinite",
						"setApprovalForAll(address,bool)": "infinite",
						"supportsInterface(bytes4)": "685",
						"transferFrom(address,address,uint256)": "infinite",
						"whiteList(uint256)": "4956"
					},
					"internal": {
						"_burn(uint256)": "infinite",
						"_isApprovedOrOwner(address,address,uint256)": "4648",
						"_mint(address,uint256)": "infinite"
					}
				},
				"methodIdentifiers": {
					"approve(address,uint256)": "095ea7b3",
					"balanceOf(address)": "70a08231",
					"getApproved(uint256)": "081812fc",
					"isApprovedForAll(address,address)": "e985e9c5",
					"ownerOf(uint256)": "6352211e",
					"safeTransferFrom(address,address,uint256)": "42842e0e",
					"safeTransferFrom(address,address,uint256,bytes)": "b88d4fde",
					"setApprovalForAll(address,bool)": "a22cb465",
					"supportsInterface(bytes4)": "01ffc9a7",
					"transferFrom(address,address,uint256)": "23b872dd",
					"whiteList(uint256)": "5c475d42"
				}
			},
			"storageLayout": {
				"storage": [
					{
						"astId": 104,
						"contract": "contract-23c7cdd9f0.sol:ERC721",
						"label": "whiteList",
						"offset": 0,
						"slot": "0",
						"type": "t_array(t_address)dyn_storage"
					},
					{
						"astId": 132,
						"contract": "contract-23c7cdd9f0.sol:ERC721",
						"label": "_ownerOf",
						"offset": 0,
						"slot": "1",
						"type": "t_mapping(t_uint256,t_address)"
					},
					{
						"astId": 136,
						"contract": "contract-23c7cdd9f0.sol:ERC721",
						"label": "_balanceOf",
						"offset": 0,
						"slot": "2",
						"type": "t_mapping(t_address,t_uint256)"
					},
					{
						"astId": 140,
						"contract": "contract-23c7cdd9f0.sol:ERC721",
						"label": "_approvals",
						"offset": 0,
						"slot": "3",
						"type": "t_mapping(t_uint256,t_address)"
					},
					{
						"astId": 146,
						"contract": "contract-23c7cdd9f0.sol:ERC721",
						"label": "isApprovedForAll",
						"offset": 0,
						"slot": "4",
						"type": "t_mapping(t_address,t_mapping(t_address,t_bool))"
					}
				],
				"types": {
					"t_address": {
						"encoding": "inplace",
						"label": "address",
						"numberOfBytes": "20"
					},
					"t_array(t_address)dyn_storage": {
						"base": "t_address",
						"encoding": "dynamic_array",
						"label": "address[]",
						"numberOfBytes": "32"
					},
					"t_bool": {
						"encoding": "inplace",
						"label": "bool",
						"numberOfBytes": "1"
					},
					"t_mapping(t_address,t_bool)": {
						"encoding": "mapping",
						"key": "t_address",
						"label": "mapping(address => bool)",
						"numberOfBytes": "32",
						"value": "t_bool"
					},
					"t_mapping(t_address,t_mapping(t_address,t_bool))": {
						"encoding": "mapping",
						"key": "t_address",
						"label": "mapping(address => mapping(address => bool))",
						"numberOfBytes": "32",
						"value": "t_mapping(t_address,t_bool)"
					},
					"t_mapping(t_address,t_uint256)": {
						"encoding": "mapping",
						"key": "t_address",
						"label": "mapping(address => uint256)",
						"numberOfBytes": "32",
						"value": "t_uint256"
					},
					"t_mapping(t_uint256,t_address)": {
						"encoding": "mapping",
						"key": "t_uint256",
						"label": "mapping(uint256 => address)",
						"numberOfBytes": "32",
						"value": "t_address"
					},
					"t_uint256": {
						"encoding": "inplace",
						"label": "uint256",
						"numberOfBytes": "32"
					}
				}
			},
			"userdoc": {
				"kind": "user",
				"methods": {},
				"version": 1
			}
		}
	}
}